S00E000065785F365F322E7372656313
S11300000C9434000C9449000C9449000C9449005D
S11300100C9449000C9449000C9449000C94490038
S11300200C9449000C9449000C9449000C94490028
S11300300C9449000C9449000C9449000C94490018
S11300400C9449000C9449000C9449000C94490008
S11300500C9449000C9449000C9449000C944900F8
S11300600C9449000C94490011241FBECFEFD8E032
S1130070DEBFCDBF11E0A0E0B1E0E0EFF3E002C0ED
S113008005900D92AE30B107D9F70E9491010C94FE
S1130090F6010C94000085B1886085B9000085B133
S11300A0877F85B90895CF93C82F662321F085B142
S11300B0826085B903C085B18D7F85B985B18B7F99
S11300C085B98AB188608AB98AB180618AB98AB1EE
S11300D080628AB98AB180648AB98BB18F7B8BB90B
S11300E08BB18F7D8BB98BB18F7E8BB98BB1877FB1
S11300F08BB9CC231CF48BB180648BB9C6FF03C0CD
S11301008BB180628BB9C5FF03C08BB180618BB9A1
S1130110C4FF03C08BB188608BB90E944B008BB1C4
S11301208F7B8BB98BB18F7D8BB98BB18F7E8BB964
S11301308BB1877F8BB9C3FF03C08BB180648BB94C
S1130140C2FF03C08BB180628BB9C1FF03C08BB106
S113015080618BB9C0FF03C08BB188608BB90E94EA
S11301604B008BB188608BB98BB180618BB98BB13B
S113017080628BB98BB180648BB9CF910895882349
S113018021F085B1826085B903C085B18D7F85B9C1
S113019085B1846085B98AB1877F8AB98AB18F7E37
S11301A08AB98AB18F7D8AB98AB18F7B8AB985B1C0
S11301B0886085B900004B9902C080E001C080E1ED
S11301C04C9980624D9980644E99806895B1977F6F
S11301D095B9000095B1986095B900004B9981607C
S11301E04C9982604D9984604E99886095B1977F4F
S11301F095B9089580E00E94BF008823DCF300C015
S113020000C080E00E94BF000895CF93C82F0E94D1
S1130210FA0060E08C2F0E945300CF910895611181
S113022004C080580E940501089580540E9405016D
S1130230089581E00E9405010895CF93C82F0E947C
S1130240FA00CA3049F4803410F480E401C080E03C
S113025080580E94050104C061E08C2F0E94530065
S1130260CF910895CF93DF93FC0103C00E941D0139
S1130270FE01EF01219680818111F8CFDF91CF91AA
S11302800895CF93C82F84B1826084B984B1846007
S113029084B984B1886084B98AB188608AB98AB122
S11302A080618AB98AB180628AB98AB180648AB964
S11302B08FE99FE00197F1F700C000008BB18061E6
S11302C08BB98BB188608BB90E944B0081EE94E0AE
S11302D00197F1F700C000000E944B0095E19A9548
S11302E0F1F700000E944B0085E18A95F1F70000C8
S11302F08BB1877F8BB90E944B0095E19A95F1F7FA
S1130300000088E20E94050188E00E9405010E9425
S1130310190186E00E9405018C2F0E940501CF91EE
S11303200895CF93DF93CDB7DEB760970FB6F894F7
S1130330DEBF0FBECDBF8CE00E9441014AE050E019
S1130340BE016F5F7F4F8FEF93E00E94B6010E9462
S1130350190180E091E00E94320161E080E00E9496
S11303600F01CE0101960E943201FFCF45325105A3
S113037020F4423010F00C94C101FB011082CB0137
S11303800895BB274A3031F4992322F4BDE29095B5
S113039081959F4F0C94CD01BB27FB015527AA27BC
S11303A0880F991FAA1FA41710F0A41B83955051FE
S11303B0B9F7A05DAA3308F0A95DA193009779F776
S11303C0B111B1931192CB010C94E601DC01FC0153
S11303D0672F71917723E1F7329704C07C916D9375
S11303E070836291AE17BF07C8F30895F894FFCFE6
S11103F048656C6C6F20576F726C64210000BE
S9030000FC
