:1000000071C000008EC000008CC000008AC00000DB
:1000100088C0000086C0000084C0000082C00000CC
:1000200080C000007EC000007CC000007AC00000DC
:1000300078C0000076C0000074C0000072C00000EC
:1000400070C000006EC000006CC000006AC00000FC
:1000500068C0000066C0000064C0000062C000000C
:1000600060C000005EC000005CC000005AC000001C
:1000700058C0000056C0000054C0000052C000002C
:1000800050C000004EC000004CC000004AC000003C
:1000900048C0000046C0000044C0000042C000004C
:1000A00040C000003EC000003CC000003AC000005C
:1000B00038C0000036C0000034C0000032C000006C
:1000C00030C000002EC000002CC000002AC000007C
:1000D00028C0000026C0000024C0000022C000008C
:1000E00020C0000011241FBECFEFD1E2DEBFCDBF84
:1000F00000E00CBF12E0A0E0B2E0E0E1F5E000E0DB
:100100000BBF02C007900D92A234B107D9F722E0CD
:10011000A2E4B2E001C01D92A334B207E1F778D1A6
:10012000F5C16ECF85B1806885B9000085B18F7744
:1001300085B90895CF93C82F662321F085B18062D9
:1001400085B903C085B18F7D85B985B18F7B85B9B0
:10015000E1E0F1E08081886080838081806180833C
:10016000808180628083808180648083E2E0F1E02E
:1001700080818F7B808380818F7D808380818F7E53
:1001800080838081877F8083CC231CF4808180647E
:100190008083C6FF05C0E2E0F1E080818062808359
:1001A000C5FF05C0E2E0F1E0808180618083C4FF8B
:1001B00005C0E2E0F1E0808188608083B3DFE2E0A7
:1001C000F1E080818F7B808380818F7D808380813F
:1001D0008F7E80838081877F8083C3FF03C080817F
:1001E00080648083C2FF05C0E2E0F1E0808180622C
:1001F0008083C1FF05C0E2E0F1E0808180618083FF
:10020000C0FF05C0E2E0F1E08081886080838ADF82
:10021000E2E0F1E08081886080838081806180837A
:10022000808180628083808180648083CF91089503
:10023000882321F085B1806285B903C085B18F7DA7
:1002400085B985B1806485B9E1E0F1E08081877F7F
:10025000808380818F7E808380818F7D8083808179
:100260008F7B808385B1806885B900008091000113
:1002700083FD02C080E001C080E19091000194FD07
:1002800080629091000195FD80649091000196FD3F
:10029000806895B19F7795B9000095B1906895B940
:1002A00000009091000193FD81609091000194FD08
:1002B00082609091000195FD84609091000196FD0F
:1002C000886095B19F7795B9089580E0B1DF882364
:1002D000E4F300C000C080E0ABCF0895CF93C82FF7
:1002E000F4DF60E08C2F26DFCF91089581E0F6CF18
:1002F0000895CF93C82FE9DFCA3041F4803410F459
:1003000080E401C080E08058E9DF03C061E08C2F09
:1003100011DFCF910895CF93DF93FC0102C0E9DF95
:10032000FE01EF01219680818111F9CFDF91CF91FC
:1003300008951F93CF93DF93182F84B1806284B9FF
:1003400084B1806484B984B1806884B9E1E0F1E06B
:1003500080818860808380818061808380818062E9
:1003600080838081806480838FE99FE00197F1F72B
:1003700000C00000C2E0D1E088818061888388816C
:1003800088608883CFDE81EE94E00197F1F700C0AA
:100390000000C8DE95E19A95F1F70000C3DE85E123
:1003A0008A95F1F700008881877F8883BBDE95E11D
:1003B0009A95F1F7000088E291DF88E08FDF96DF01
:1003C00086E08CDF812F8ADFDF91CF911F91089526
:1003D0009093C5008093C40088E18093C1008EE0B3
:1003E0008093C200089580EC9BE3909399008093E2
:1003F0009800E1E9F0E08081816080832FEF87EA57
:1004000091E6215080409040E1F700C0000008953F
:100410008DB188608DB987E690E0DADF78948CE062
:1004200088DFA1E9B0E01C92109295001092940030
:10043000E0E9F0E080818064808380818160808356
:100440008C9180618C93E1E7F0E080818260808311
:1004500080914202823061F12CF4882349F081308E
:10046000A1F051C0833089F1843009F43DC04BC004
:100470003DDF80E092E04FDF8091C0008823E4F709
:100480008091C60080934202E3CF30DF80E192E0AA
:1004900042DF8FE39CE90197F1F700C000008091F3
:1004A000C0008823E4F78091C60080934202D0CF39
:1004B0001DDF89E192E02FDF8091C0008823E4F7FF
:1004C0008091C60080934202C3CF10DF87E292E0A2
:1004D00022DF9FEF27EA81E6915020408040E1F73C
:1004E00000C0000080DFB4CF01DF86E392E013DFBD
:1004F0009FEF27EA81E6915020408040E1F700C05D
:10050000000071DFA5CF10924202A2CFF894FFCF76
:10051000416C61726D2073797374656D206F6E002C
:1005200044697361726D6564004769766520706126
:100530007373776F72640057726F6E6720706173A8
:1005400073776F72640054696D652072616E2075F7
:02055000700039
:00000001FF
