:100000000C9434000C9451000C9451000C94510049
:100010000C9451000C9451000C9451000C9451001C
:100020000C9451000C9451000C9451000C9451000C
:100030000C9451000C9451000C9451000C945100FC
:100040000C9451000C9451000C9451000C945100EC
:100050000C9451000C9451000C9451000C945100DC
:100060000C9451000C94510011241FBECFEFD8E026
:10007000DEBFCDBF11E0A0E0B1E0ECE2FBE002C0EA
:1000800005900D92A236B107D9F721E0A2E6B1E0C2
:1000900001C01D92A836B207E1F70E9490000C94AF
:1000A00094050C9400008BB1877F8BB92FE38DE012
:1000B00093E0215080409040E1F700C000008BB1F8
:1000C00088608BB92FE38DE093E021508040904011
:1000D000E1F700C000008BB1877F8BB92FE38DE083
:1000E00093E0215080409040E1F700C00000089567
:1000F0000E94AD02892B89F00E9453000E94530098
:100100000E9453000E9453000E9453000E9453001B
:100110000E94530080E090E0089581E090E008950F
:10012000CF93DF93CDB7DEB76C970FB6F894DEBFF1
:100130000FBECDBF8EE09E012F5F3F4F7901F901C9
:10014000282F11922A95E9F792E09C832FE932E05B
:100150003A8729878E01015F1F4FF80111928A9516
:10016000E9F781E08A8B86EA92E09A8F898F87E6A9
:1001700090E00E949402E2E6F1E0F382E2821183D1
:1001800000831AB88FE084B983EC99E00197F1F706
:1001900000C0000083E08BB980E385B9E3ECF9E0AF
:1001A0003197F1F700C00000E12CF12C87EA91E6CD
:1001B0000197F1F700C0000089B11F928F9380E092
:1001C00091E09F938F930E94B60219B190E4199F1A
:1001D00080011124C80199279F938F9389E091E0B2
:1001E0009F938F930E94B602E7EAF1E63197F1F709
:1001F00000C0000083B11F928F9388E191E09F932C
:100200008F930E94B60213B11F731F921F9381E256
:1002100091E09F938F930E94B60287EA91E601973F
:10022000F1F700C00000102BD12C1F921F9380E328
:1002300091E09F938F930E94B6021F921F9380E4D8
:1002400091E09F938F930E94B6020FB6F894DEBFA1
:100250000FBECDBF112309F4A9CF81E591E09F9393
:100260008F930E94B602DF921F930F2EFCE4CF2ED5
:10027000F1E0DF2EF02DDF92CF920E94B60283ECE8
:1002800099E00197F1F700C000009AB183E0892757
:100290008AB994B18FE3892784B9E3ECF9E0319707
:1002A000F1F700C0000095B18FE0892785B987EA92
:1002B00091E60197F1F700C0000089B1E0E48E9F5C
:1002C000C001112493B19F73892B807F182B1F923B
:1002D0001F93DF92CF920E94B6020FB6F894DEBF52
:1002E0000FBECDBF173779F481E3F701E85AFE4F0F
:1002F0008083F701E35AFE4F8081813309F0F5C016
:100300000E945300F2C01B3779F482E3F701E85AE8
:10031000FE4F8083F701E35AFE4F8081823309F05C
:10032000E4C00E945300E1C01D3779F483E3F70174
:10033000E85AFE4F8083F701E35AFE4F80818333F2
:1003400009F0D3C00E945300D0C01E3779F481E475
:10035000F701E85AFE4F8083F701E35AFE4F808190
:10036000813409F0C2C00E945300BFC0173B79F42A
:1003700084E3F701E85AFE4F8083F701E35AFE4F0A
:100380008081843309F0B1C00E945300AEC01B3B92
:1003900079F485E3F701E85AFE4F8083F701E35AC9
:1003A000FE4F8081853309F0A0C00E9453009DC09C
:1003B0001D3B79F486E3F701E85AFE4F8083F7018D
:1003C000E35AFE4F8081863309F08FC00E945300AC
:1003D0008CC01E3B79F482E4F701E85AFE4F80831B
:1003E000F701E35AFE4F8081823409F07EC00E94FB
:1003F00053007BC0173D79F487E3F701E85AFE4FBD
:100400008083F701E35AFE4F8081873309F06DC086
:100410000E9453006AC01B3D79F488E3F701E85A53
:10042000FE4F8083F701E35AFE4F8081883309F045
:100430005CC00E94530059C01D3D79F489E3F70167
:10044000E85AFE4F8083F701E35AFE4F80818933DB
:1004500009F04BC00E94530048C01E3D71F483E474
:10046000F701E85AFE4F8083F701E35AFE4F80817F
:100470008334D9F50E94530038C0173E71F48AE2E4
:10048000F701E85AFE4F8083F701E35AFE4F80815F
:100490008A3259F50E94530028C01B3E71F480E354
:1004A000F701E85AFE4F8083F701E35AFE4F80813F
:1004B0008033D9F40E94530018C01D3E39F468E51A
:1004C00071E08DE591E00E9478000FC01E3E69F456
:1004D00084E4F701E85AFE4F8083F701E35AFE4FA8
:1004E0008081843411F40E9453008AB18AB984B1A6
:1004F0008F6084B983EC99E00197F1F700C00000A8
:1005000083E08BB980E385B9E3ECF9E03197F1F74B
:1005100000C00000FFEFEF1AFF0A87EA91E601979B
:10052000F1F700C0000042CE9093C5008093C40054
:1005300088E18093C1008EE08093C200089590917D
:10054000C00095FFFCCF8093C60008958091C00045
:100550008823E4F78091C6000895FB01DC018D91AA
:10056000019080190110D9F3990B0895A0E0B0E033
:10057000ECEBF2E00C946D05AE014B5F5F4FFA01BE
:1005800061917191AF0180916401909165010E9428
:10059000CC02E2E00C948905ABE0B0E0E2EDF2E0E1
:1005A0000C945D056C017B018A01FC0117821682A7
:1005B000838181FFCCC1CE0101963C01F60193817C
:1005C000F70193FD859193FF81917F01882309F4C1
:1005D000BAC1853239F493FD859193FF81917F01F2
:1005E000853229F4B60190E00E94C304E7CF912C34
:1005F000212C312CFFE1F315D8F08B3279F038F44F
:10060000803279F08332A1F4232D20611DC08D3218
:1006100061F0803369F4232D216016C0832D826040
:10062000382EE32DE4603E2E2AC0F32DF8601DC065
:1006300037FC2DC020ED280F2A3040F08E32B9F45F
:1006400036FC81C1232D2064322E19C036FE06C02F
:100650008AE0989E200D1124922E11C0EAE02E9E71
:10066000200D1124222EF32DF0623F2E08C08C366F
:1006700021F4832D8068382E02C0883641F4F701BA
:1006800093FD859193FF81917F018111B3CF982FC5
:100690009F7D9554933028F40C5F1F4F9FE39983FF
:1006A0000DC0833631F0833771F0833509F059C0BE
:1006B00021C0F801808189830E5F1F4F88248394B5
:1006C000912C530113C02801F2E04F0E511CF80188
:1006D000A080B18036FE03C0692D70E002C06FEFCC
:1006E0007FEFC5010E94B8044C018201F32DFF7712
:1006F0003F2E16C0280122E0420E511CF801A080B6
:10070000B18036FE03C0692D70E002C06FEF7FEF4D
:10071000C5010E94AD044C01F32DF0683F2E82010B
:1007200033FC1BC0822D90E088169906B0F4B60108
:1007300080E290E00E94C3042A94F4CFF50137FCD4
:10074000859137FE81915F01B60190E00E94C3045C
:1007500021102A9421E0821A91088114910471F7E2
:10076000E8C0843611F0893641F5F80137FE07C03C
:1007700060817181828193810C5F1F4F08C060810D
:100780007181072E000C880B990B0E5F1F4FF32D04
:10079000FF763F2E97FF09C09095809570956195E3
:1007A0007F4F8F4F9F4FF0683F2E2AE030E0A3012C
:1007B0000E94FF04882E861845C0853731F4232D0A
:1007C0002F7EB22E2AE030E025C0932D997FB92EDE
:1007D0008F36C1F018F4883579F0B5C0803719F03C
:1007E000883721F0B0C0E92FE061BE2EB4FE0DC005
:1007F000FB2DF460BF2E09C034FE0AC0292F2660ED
:10080000B22E06C028E030E005C020E130E002C092
:1008100020E132E0F801B7FE07C06081718182817A
:1008200093810C5F1F4F06C06081718180E090E072
:100830000E5F1F4FA3010E94FF04882E8618FB2D18
:10084000FF773F2E36FE0DC0232D2E7FA22E89145A
:1008500058F434FE0BC032FC09C0832D8E7EA82EC6
:1008600005C0B82CA32C03C0B82C01C0B92CA4FE21
:100870000FC0FE01E80DF11D8081803321F49A2D17
:10088000997EA92E09C0A2FE06C0B394B39404C0F9
:100890008A2D867809F0B394A3FC11C0A0FE06C08F
:1008A000B21488F4280C922C9B180EC0B21460F479
:1008B000B60180E290E00E94C304B394F7CFB21473
:1008C00018F42B1802C0982C212CA4FE10C0B601DD
:1008D00080E390E00E94C304A2FE17C0A1FC03C005
:1008E00088E790E002C088E590E0B6010CC08A2D50
:1008F000867859F0A1FE02C08BE201C080E2A7FC1D
:100900008DE2B60190E00E94C304891438F4B60168
:1009100080E390E00E94C3049A94F7CF8A94F30195
:10092000E80DF11D8081B60190E00E94C3048110A2
:10093000F5CF222009F442CEB60180E290E00E9479
:10094000C3042A94F6CFF6018681978102C08FEF07
:100950009FEF2B96E2E10C947905FC010590615024
:1009600070400110D8F7809590958E0F9F1F0895C5
:10097000FC016150704001900110D8F7809590956E
:100980008E0F9F1F08950F931F93CF93DF93FB014B
:10099000238121FD03C08FEF9FEF2CC022FF16C0E3
:1009A00046815781248135814217530744F4A08141
:1009B000B1819D012F5F3F4F318320838C9326812E
:1009C00037812F5F3F4F3783268314C08B01EC01A3
:1009D000FB010084F185E02D0995892BE1F6D80112
:1009E00016968D919C911797019617969C938E93CE
:1009F0001697CE01DF91CF911F910F910895FA01C3
:100A0000AA27283051F1203181F1E8946F936E7F4D
:100A10006E5F7F4F8F4F9F4FAF4FB1E03ED0B4E03E
:100A20003CD0670F781F891F9A1FA11D680F791F7F
:100A30008A1F911DA11D6A0F711D811D911DA11D90
:100A400020D009F468943F912AE0269F11243019A0
:100A5000305D3193DEF6CF010895462F4770405D3B
:100A60004193B3E00FD0C9F7F6CF462F4F70405DEA
:100A70004A3318F0495D31FD4052419302D0A9F745
:100A8000EACFB4E0A6959795879577956795BA953F
:100A9000C9F700976105710508959B01AC010A2E05
:100AA00006945795479537952795BA95C9F7620FDC
:100AB000731F841F951FA01D08952F923F924F9280
:100AC0005F926F927F928F929F92AF92BF92CF92DE
:100AD000DF92EF92FF920F931F93CF93DF93CDB7E7
:100AE000DEB7CA1BDB0B0FB6F894DEBF0FBECDBF5F
:100AF00009942A88398848885F846E847D848C8430
:100B00009B84AA84B984C884DF80EE80FD800C8138
:100B10001B81AA81B981CE0FD11D0FB6F894DEBF1B
:0C0B20000FBECDBFED010895F894FFCF8B
:100B2C0050494E442025642000706F7274645F76C7
:100B3C00616C73202564200050494E4220256420AE
:100B4C0000706F7274625F76616C73202564200094
:100B5C004B65797061645F76616C7320256420004D
:100B6C004B65797061645F76616C732025640A0D46
:100B7C00006C6F6F700A0D00787878780030313225
:020B8C00330034
:00000001FF
