S01200004B6579706164546573742E7372656314
S11300000C9434000C9451000C9451000C94510045
S11300100C9451000C9451000C9451000C94510018
S11300200C9451000C9451000C9451000C94510008
S11300300C9451000C9451000C9451000C945100F8
S11300400C9451000C9451000C9451000C945100E8
S11300500C9451000C9451000C9451000C945100D8
S11300600C9451000C94510011241FBECFEFD8E022
S1130070DEBFCDBF11E0A0E0B1E0E0EBFAE002C0EA
S113008005900D92A633B107D9F721E0A6E3B1E0BC
S113009001C01D92AC33B207E1F70E9490000C94AA
S11300A056050C9400008BB1877F8BB92FE38DE04C
S11300B093E0215080409040E1F700C000008BB1F4
S11300C088608BB92FE38DE093E02150804090400D
S11300D0E1F700C000008BB1877F8BB92FE38DE07F
S11300E093E0215080409040E1F700C00000089563
S11300F00E946F02892B89F00E9453000E945300D2
S11301000E9453000E9453000E9453000E94530017
S11301100E94530080E090E0089581E090E008950B
S1130120CF93DF93CDB7DEB76C970FB6F894DEBFED
S11301300FBECDBF8EE09E012F5F3F4F7901F901C5
S1130140282F11922A95E9F792E09C8321E632E068
S11301503A8729878E01015F1F4FF80111928A9512
S1130160E9F781E08A8B88E692E09A8F898F87E6A7
S113017090E00E945602E6E3F1E0F382E28211830A
S113018000838AB18AB984B18F6084B989EF90E021
S11301900197F1F700C0000083E08BB980E385B9D3
S11301A0C12CD12C09B190E4099F8001112483B1A1
S11301B08F73E82EF82EF02A1F92FF9280E091E0D0
S11301C09F938F930E947802EF2DEF70FE2E89B1DA
S11301D01F928F931F92EF9211271F930F931F92D9
S11301E0EF9381E191E09F938F930E9478020FB681
S11301F0F894DEBF0FBECDBFFF20A1F285E291E0EF
S11302009F938F930E94780283EC99E00197F1F712
S113021000C000009AB183E089278AB994B18FE3C2
S1130220892784B9E9EFF0E03197F1F700C00000C5
S113023095B18FE0892785B987EA91E60197F1F7AF
S113024000C0000089B1E0E48E9FC001112413B105
S11302501F73182B107F1F291F921F9380E291E0B8
S11302609F938F930E9478020F900F900F900F909E
S11302700F900F90173779F481E3F601E45DFE4F98
S11302808083F601EF5CFE4F8081813309F0F5C075
S11302900E945300F2C01B3779F482E3F601E45D57
S11302A0FE4F8083F601EF5CFE4F8081823309F0BC
S11302B0E4C00E945300E1C01D3779F483E3F601E2
S11302C0E45DFE4F8083F601EF5CFE4F8081833353
S11302D009F0D3C00E945300D0C01E3779F481E4E2
S11302E0F601E45DFE4F8083F601EF5CFE4F8081F2
S11302F0813409F0C2C00E945300BFC0173B79F497
S113030084E3F601E45DFE4F8083F601EF5CFE4F6B
S11303108081843309F0B1C00E945300AEC01B3BFE
S113032079F485E3F601E45DFE4F8083F601EF5C2A
S1130330FE4F8081853309F0A0C00E9453009DC008
S11303401D3B79F486E3F601E45DFE4F8083F601FC
S1130350EF5CFE4F8081863309F08FC00E9453000A
S11303608CC01E3B79F482E4F601E45DFE4F808389
S1130370F601EF5CFE4F8081823409F07EC00E945A
S113038053007BC0173D79F487E3F601E45DFE4F2B
S11303908083F601EF5CFE4F8081873309F06DC0E6
S11303A00E9453006AC01B3D79F488E3F601E45DC2
S11303B0FE4F8083F601EF5CFE4F8081883309F0A5
S11303C05CC00E94530059C01D3D79F489E3F601D5
S11303D0E45DFE4F8083F601EF5CFE4F808189333C
S11303E009F04BC00E94530048C01E3D71F483E4E1
S11303F0F601E45DFE4F8083F601EF5CFE4F8081E1
S11304008334D9F50E94530038C0173E71F48AE250
S1130410F601E45DFE4F8083F601EF5CFE4F8081C0
S11304208A3259F50E94530028C01B3E71F480E3C0
S1130430F601E45DFE4F8083F601EF5CFE4F8081A0
S11304408033D9F40E94530018C01D3E39F46CE285
S113045071E081E391E00E9478000FC01E3E69F4D0
S113046084E4F601E45DFE4F8083F601EF5CFE4F09
S11304708081843411F40E9453008AB18AB984B112
S11304808F6084B989EF90E00197F1F700C0000014
S113049083E08BB980E385B99FEFC91AD90AE3ECED
S11304A0F9E03197F1F700C000007CCE9093C500CD
S11304B08093C40088E18093C1008EE08093C200E1
S11304C008959091C00095FFFCCF8093C6000895D5
S11304D08091C0008823E4F78091C6000895FB0151
S11304E0DC018D91019080190110D9F3990B0895C5
S11304F0A0E0B0E0EEE7F2E00C942F05AE014B5F14
S11305005F4FFA0161917191AF018091380190912F
S113051039010E948E02E2E00C944B05ABE0B0E09E
S1130520E4E9F2E00C941F056C017B018A01FC01F3
S113053017821682838181FFCCC1CE0101963C01D2
S1130540F6019381F70193FD859193FF81917F01DA
S1130550882309F4BAC1853239F493FD859193FF58
S113056081917F01853229F4B60190E00E948504CF
S1130570E7CF912C212C312CFFE1F315D8F08B32ED
S113058079F038F4803279F08332A1F4232D20619C
S11305901DC08D3261F0803369F4232D216016C0B3
S11305A0832D8260382EE32DE4603E2E2AC0F32D85
S11305B0F8601DC037FC2DC020ED280F2A3040F014
S11305C08E32B9F436FC81C1232D2064322E19C039
S11305D036FE06C08AE0989E200D1124922E11C08A
S11305E0EAE02E9E200D1124222EF32DF0623F2EE0
S11305F008C08C3621F4832D8068382E02C08836DA
S113060041F4F70193FD859193FF81917F0181115D
S1130610B3CF982F9F7D9554933028F40C5F1F4FD0
S11306209FE399830DC0833631F0833771F08335AE
S113063009F059C021C0F801808189830E5F1F4FE2
S113064088248394912C530113C02801F2E04F0EA7
S1130650511CF801A080B18036FE03C0692D70E002
S113066002C06FEF7FEFC5010E947A044C01820142
S1130670F32DFF773F2E16C0280122E0420E511CB5
S1130680F801A080B18036FE03C0692D70E002C07D
S11306906FEF7FEFC5010E946F044C01F32DF068EA
S11306A03F2E820133FC1BC0822D90E088169906F0
S11306B0B0F4B60180E290E00E9485042A94F4CF5D
S11306C0F50137FC859137FE81915F01B60190E019
S11306D00E94850421102A9421E0821A9108811431
S11306E0910471F7E8C0843611F0893641F5F801B8
S11306F037FE07C060817181828193810C5F1F4F37
S113070008C060817181072E000C880B990B0E5F65
S11307101F4FF32DFF763F2E97FF09C090958095CC
S1130720709561957F4F8F4F9F4FF0683F2E2AE061
S113073030E0A3010E94C104882E861845C0853785
S113074031F4232D2F7EB22E2AE030E025C0932DE4
S1130750997FB92E8F36C1F018F4883579F0B5C079
S1130760803719F0883721F0B0C0E92FE061BE2E40
S1130770B4FE0DC0FB2DF460BF2E09C034FE0AC0C8
S1130780292F2660B22E06C028E030E005C020E103
S113079030E002C020E132E0F801B7FE07C060811A
S11307A07181828193810C5F1F4F06C060817181CA
S11307B080E090E00E5F1F4FA3010E94C104882EC9
S11307C08618FB2DFF773F2E36FE0DC0232D2E7F7E
S11307D0A22E891458F434FE0BC032FC09C0832DB8
S11307E08E7EA82E05C0B82CA32C03C0B82C01C043
S11307F0B92CA4FE0FC0FE01E80DF11D80818033E9
S113080021F49A2D997EA92E09C0A2FE06C0B394A4
S1130810B39404C08A2D867809F0B394A3FC11C064
S1130820A0FE06C0B21488F4280C922C9B180EC0AB
S1130830B21460F4B60180E290E00E948504B3949F
S1130840F7CFB21418F42B1802C0982C212CA4FE54
S113085010C0B60180E390E00E948504A2FE17C098
S1130860A1FC03C088E790E002C088E590E0B601EF
S11308700CC08A2D867859F0A1FE02C08BE201C01B
S113088080E2A7FC8DE2B60190E00E948504891401
S113089038F4B60180E390E00E9485049A94F7CF7F
S11308A08A94F301E80DF11D8081B60190E00E9465
S11308B085048110F5CF222009F442CEB60180E2EE
S11308C090E00E9485042A94F6CFF60186819781F0
S11308D002C08FEF9FEF2B96E2E10C943B05FC01E5
S11308E00590615070400110D8F7809590958E0F57
S11308F09F1F0895FC016150704001900110D8F7CA
S1130900809590958E0F9F1F08950F931F93CF93FB
S1130910DF93FB01238121FD03C08FEF9FEF2CC0E8
S113092022FF16C04681578124813581421753071F
S113093044F4A081B1819D012F5F3F4F3183208317
S11309408C93268137812F5F3F4F3783268314C0D2
S11309508B01EC01FB010084F185E02D0995892BC5
S1130960E1F6D80116968D919C91179701961796EA
S11309709C938E931697CE01DF91CF911F910F9187
S11309800895FA01AA27283051F1203181F1E89421
S11309906F936E7F6E5F7F4F8F4F9F4FAF4FB1E06E
S11309A03ED0B4E03CD0670F781F891F9A1FA11D69
S11309B0680F791F8A1F911DA11D6A0F711D811D6A
S11309C0911DA11D20D009F468943F912AE0269F2F
S11309D011243019305D3193DEF6CF010895462F8E
S11309E04770405D4193B3E00FD0C9F7F6CF462F6F
S11309F04F70405D4A3318F0495D31FD40524193D8
S1130A0002D0A9F7EACFB4E0A69597958795779594
S1130A106795BA95C9F700976105710508959B011B
S1130A20AC010A2E06945795479537952795BA95A4
S1130A30C9F7620F731F841F951FA01D08952F927D
S1130A403F924F925F926F927F928F929F92AF925A
S1130A50BF92CF92DF92EF92FF920F931F93CF93A7
S1130A60DF93CDB7DEB7CA1BDB0B0FB6F894DEBF3E
S1130A700FBECDBF09942A88398848885F846E8464
S1130A807D848C849B84AA84B984C884DF80EE80AE
S1130A90FD800C811B81AA81B981CE0FD11D0FB6B7
S1130AA0F894DEBF0FBECDBFED010895F894FFCFDB
S1130AB04B65797061645F76616C732025640A0DFF
S1130AC00025642025642025642050494E443A20A2
S1130AD025640A0D006C6F6F700A0D0078787878C1
S1090AE000303132330046
S9030000FC
