S01200004B6579706164546573742E7372656314
S11300000C9434000C9449000C9449000C9449005D
S11300100C9449000C9449000C9449000C94490038
S11300200C9449000C9449000C9449000C94490028
S11300300C9449000C9449000C9449000C94490018
S11300400C9449000C9449000C9449000C94490008
S11300500C9449000C9449000C9449000C944900F8
S11300600C9449000C94490011241FBECFEFD8E032
S1130070DEBFCDBF11E0A0E0B1E0EAE1F3E002C0F1
S113008005900D92A630B107D9F70E9470000C9428
S11300908B010C94000085B18E7F85B92FE38DE030
S11300A093E0215080409040E1F700C0000085B10A
S11300B0816085B92FE38DE093E02150804090402A
S11300C0E1F700C0000085B18E7F85B92FE38DE094
S11300D093E0215080409040E1F700C00000089573
S11300E084B1816084B984B1826084B984B184604C
S11300F084B984B1886084B98AB18F608AB989EF80
S113010090E00197F1F700C0000080EF8BB9C0E0E8
S1130110D0E089B1803FE9F329B183EC99E00197FC
S1130120F1F700C000009AB190959AB989EF90E078
S11301300197F1F700C000009BB190959BB987EA45
S113014091E60197F1F700C0000089B1822B90E09D
S11301508737910551F4FE01E050FF4F80818133D0
S113016009F0BFC00E944B00BCC08B37910551F40D
S1130170FE01E050FF4F8081823309F0B2C00E943B
S11301804B00AFC08D37910551F4FE01E050FF4F95
S11301908081833309F0A5C00E944B00A2C08E3732
S11301A0910551F4FE01E050FF4F8081813409F044
S11301B098C00E944B0095C0873B910551F4FE0105
S11301C0E050FF4F8081843309F08BC00E944B00C4
S11301D088C08B3B910551F4FE01E050FF4F8081B4
S11301E0853309F07EC00E944B007BC08D3B910596
S11301F051F4FE01E050FF4F8081863309F071C055
S11302000E944B006EC08E3B910551F4FE01E050FC
S1130210FF4F8081823409F064C00E944B0061C0AA
S1130220873D910551F4FE01E050FF4F80818733F3
S113023009F057C00E944B0054C08B3D910551F406
S1130240FE01E050FF4F8081883309F04AC00E94CC
S11302504B0047C08D3D910549F4FE01E050FF4F2E
S113026080818933F1F50E944B003BC08E3D91059E
S113027049F4FE01E050FF4F8081833491F50E94E0
S11302804B002FC0873E910549F4FE01E050FF4F1B
S113029080818A3231F50E944B0023C08B3E910548
S11302A049F4FE01E050FF4F80818033D1F40E9475
S11302B04B0017C08D3E910549F4FE01E050FF4FFD
S11302C08081833271F40E944B000BC08E3E9105F5
S11302D041F4FE01E050FF4F8081843411F40E9408
S11302E04B0089B1803F19F089B18F30E9F78AB1A9
S11302F080958AB989EF90E00197F1F700C000007A
S11303008BB180958BB9219683EC99E00197F1F735
S10D031000C00000FECEF894FFCFF9
S109031A30313233000013
S9030000FC
