S01200004B6579706164546573742E7372656314
S11300000C9434000C9451000C9451000C94510045
S11300100C9451000C9451000C9451000C94510018
S11300200C9451000C9451000C9451000C94510008
S11300300C9451000C9451000C9451000C945100F8
S11300400C9451000C9451000C9451000C945100E8
S11300500C9451000C9451000C9451000C945100D8
S11300600C9451000C94510011241FBECFEFD8E022
S1130070DEBFCDBF11E0A0E0B1E0E6E6FBE002C0E8
S113008005900D92A239B107D9F721E0A2E9B1E0B8
S113009001C01D92A839B207E1F70E9490000C94A8
S11300A0B1050C9400008BB1877F8BB92FEF83EDE2
S11300B090E3215080409040E1F700C000008BB1F4
S11300C088608BB92FEF83ED90E3215080409040FE
S11300D0E1F700C000008BB1877F8BB92FEF83ED70
S11300E090E3215080409040E1F700C00000089563
S11300F00E94CA02892B89F00E9453000E94530077
S11301000E9453000E9453000E9453000E94530017
S11301100E94530080E090E0089581E090E008950B
S1130120CF93DF93CDB7DEB76C970FB6F894DEBFED
S11301300FBECDBF8EE09E012F5F3F4F7901F901C5
S1130140282F11922A95E9F792E09C832CEB32E058
S11301503A8729878E01015F1F4FF80111928A9512
S1130160E9F781E08A8B83EC92E09A8F898F87E6A6
S113017090E00E94B102E2E9F1E0F382E2821183AD
S113018000838AB18F738AB984B18C7F84B984B1B6
S11301908C6384B98FE39CE90197F1F700C00000F8
S11301A08BB1806C8BB985B1836085B9EFE3FCE9D1
S11301B03197F1F700C00000C12CD12CFFEF21EEE4
S11301C034E0F15020403040E1F700C00000E9B0D5
S11301D0E694E694E694E694E694E69403B110E09B
S11301E0000F111F000F111FFE2CF02A1F92FF9207
S11301F080E091E09F938F930E94D3028F2D8F70A4
S1130200F82E83B1B12C1F928F9311271F930F9354
S11302101F92EF921F92FF928FE091E09F938F9332
S11302200E94D3020FB6F894DEBF0FBECDBFFFE02D
S1130230FF1621F287E491E09F938F930E94D302EB
S11302408FE39CE90197F1F700C000008AB1806C4C
S11302508AB983E084B9EFE3FCE93197F1F700C090
S1130260000085B18C6385B985B18C7385B98BB178
S11302708F738BB9FFEF21EE34E0F1502040304012
S1130280E1F700C0000089B1829586958695837058
S113029003B110E0000F111F000F111F1F928F9365
S11302A0C80199279F938F938CE491E09F938F9338
S11302B00E94D3028FE39CE90197F1F700C000008C
S11302C0007F83B11F928F938BE691E09F938F936E
S11302D00E94D302BF92FF9286E791E09F938F938F
S11302E00E94D302EFE3FCE93197F1F700C000006C
S11302F00F291F920F9382E491E09F938F930E94A2
S1130300D3020FB6F894DEBF0FBECDBF073779F422
S113031081E3F601E857FE4F8083F601E357FE4F71
S11303208081813309F0F5C00E945300F2C00B377D
S113033079F482E3F601E857FE4F8083F601E35730
S1130340FE4F8081823309F0E4C00E945300E1C073
S11303500D3779F483E3F601E857FE4F8083F60105
S1130360E357FE4F8081833309F0D3C00E945300CA
S1130370D0C00E3779F481E4F601E857FE4F80834C
S1130380F601E357FE4F8081813409F0C2C00E9418
S11303905300BFC0073B79F484E3F601E857FE4FEE
S11303A08083F601E357FE4F8081843309F0B1C0A6
S11303B00E945300AEC00B3B79F485E3F601E85785
S11303C0FE4F8083F601E357FE4F8081853309F0A9
S11303D0A0C00E9453009DC00D3B79F486E3F60152
S11303E0E857FE4F8083F601E357FE4F8081863342
S11303F009F08FC00E9453008CC00E3B79F482E454
S1130400F601E857FE4F8083F601E357FE4F8081E3
S1130410823409F07EC00E9453007BC0073D79F40A
S113042087E3F601E857FE4F8083F601E357FE4F5A
S11304308081873309F06DC00E9453006AC00B3D70
S113044079F488E3F601E857FE4F8083F601E35719
S1130450FE4F8081883309F05CC00E94530059C06C
S11304600D3D79F489E3F601E857FE4F8083F601E8
S1130470E357FE4F8081893309F04BC00E9453003B
S113048048C00E3D71F483E4F601E857FE4F8083C3
S1130490F601E357FE4F80818334D9F50E9453005F
S11304A038C0073E71F48AE2F601E857FE4F8083B4
S11304B0F601E357FE4F80818A3259F50E945300BA
S11304C028C00B3E71F480E3F601E857FE4F8083A9
S11304D0F601E357FE4F80818033D9F40E94530024
S11304E018C00D3E39F468E871E08DE891E00E948F
S11304F078000FC00E3E69F484E4F601E857FE4F1D
S11305008083F601E357FE4F8081843411F40E9406
S113051053008AB18F738AB984B18C7F84B984B152
S11305208C6384B98FE39CE90197F1F700C0000064
S11305308BB1806C8BB985B1836085B985B1837CBF
S113054085B9EFE3FCE93197F1F700C00000FFEF54
S1130550CF1ADF0A8FE39CE90197F1F700C000008E
S11305602DCE9093C5008093C40088E18093C10090
S11305708EE08093C20008959091C00095FFFCCF57
S11305808093C60008958091C0008823E4F7809189
S1130590C6000895FB01DC018D91019080190110C2
S11305A0D9F3990B0895A0E0B0E0E9EDF2E00C94E2
S11305B08A05AE014B5F5F4FFA0161917191AF0102
S11305C080919401909195010E94E902E2E00C94DB
S11305D0A605ABE0B0E0EFEEF2E00C947A056C0116
S11305E07B018A01FC0117821682838181FFCCC1C1
S11305F0CE0101963C01F6019381F70193FD8591AB
S113060093FF81917F01882309F4BAC1853239F4BB
S113061093FD859193FF81917F01853229F4B60181
S113062090E00E94E004E7CF912C212C312CFFE1D3
S1130630F315D8F08B3279F038F4803279F08332C4
S1130640A1F4232D20611DC08D3261F0803369F443
S1130650232D216016C0832D8260382EE32DE460A3
S11306603E2E2AC0F32DF8601DC037FC2DC020EDAE
S1130670280F2A3040F08E32B9F436FC81C1232D84
S11306802064322E19C036FE06C08AE0989E200DE2
S11306901124922E11C0EAE02E9E200D1124222E48
S11306A0F32DF0623F2E08C08C3621F4832D806830
S11306B0382E02C0883641F4F70193FD859193FFEB
S11306C081917F018111B3CF982F9F7D95549330F1
S11306D028F40C5F1F4F9FE399830DC0833631F0DC
S11306E0833771F0833509F059C021C0F801808146
S11306F089830E5F1F4F88248394912C530113C068
S11307002801F2E04F0E511CF801A080B18036FEA2
S113071003C0692D70E002C06FEF7FEFC5010E9436
S1130720D5044C018201F32DFF773F2E16C028011A
S113073022E0420E511CF801A080B18036FE03C0B5
S1130740692D70E002C06FEF7FEFC5010E94CA04FB
S11307504C01F32DF0683F2E820133FC1BC0822D27
S113076090E088169906B0F4B60180E290E00E9409
S1130770E0042A94F4CFF50137FC859137FE81918A
S11307805F01B60190E00E94E00421102A9421E068
S1130790821A91088114910471F7E8C0843611F02B
S11307A0893641F5F80137FE07C060817181828185
S11307B093810C5F1F4F08C060817181072E000C6C
S11307C0880B990B0E5F1F4FF32DFF763F2E97FF7B
S11307D009C090958095709561957F4F8F4F9F4F7D
S11307E0F0683F2E2AE030E0A3010E941C05882E09
S11307F0861845C0853731F4232D2F7EB22E2AE08A
S113080030E025C0932D997FB92E8F36C1F018F4AE
S1130810883579F0B5C0803719F0883721F0B0C039
S1130820E92FE061BE2EB4FE0DC0FB2DF460BF2E97
S113083009C034FE0AC0292F2660B22E06C028E063
S113084030E005C020E130E002C020E132E0F801F0
S1130850B7FE07C060817181828193810C5F1F4F55
S113086006C06081718180E090E00E5F1F4FA3019C
S11308700E941C05882E8618FB2DFF773F2E36FE1E
S11308800DC0232D2E7FA22E891458F434FE0BC0E4
S113089032FC09C0832D8E7EA82E05C0B82CA32C53
S11308A003C0B82C01C0B92CA4FE0FC0FE01E80D92
S11308B0F11D8081803321F49A2D997EA92E09C0DF
S11308C0A2FE06C0B394B39404C08A2D867809F0BE
S11308D0B394A3FC11C0A0FE06C0B21488F4280C83
S11308E0922C9B180EC0B21460F4B60180E290E022
S11308F00E94E004B394F7CFB21418F42B1802C08A
S1130900982C212CA4FE10C0B60180E390E00E9434
S1130910E004A2FE17C0A1FC03C088E790E002C077
S113092088E590E0B6010CC08A2D867859F0A1FEC6
S113093002C08BE201C080E2A7FC8DE2B60190E028
S11309400E94E004891438F4B60180E390E00E9428
S1130950E0049A94F7CF8A94F301E80DF11D8081A5
S1130960B60190E00E94E0048110F5CF222009F442
S113097042CEB60180E290E00E94E0042A94F6CFD1
S1130980F6018681978102C08FEF9FEF2B96E2E1FB
S11309900C949605FC010590615070400110D8F745
S11309A0809590958E0F9F1F0895FC0161507040B3
S11309B001900110D8F7809590958E0F9F1F089590
S11309C00F931F93CF93DF93FB01238121FD03C07A
S11309D08FEF9FEF2CC022FF16C0468157812481E0
S11309E035814217530744F4A081B1819D012F5FE3
S11309F03F4F318320838C93268137812F5F3F4F74
S1130A003783268314C08B01EC01FB010084F1853C
S1130A10E02D0995892BE1F6D80116968D919C91CC
S1130A201797019617969C938E931697CE01DF9194
S1130A30CF911F910F910895FA01AA27283051F1FF
S1130A40203181F1E8946F936E7F6E5F7F4F8F4FFB
S1130A509F4FAF4FB1E03ED0B4E03CD0670F781F5A
S1130A60891F9A1FA11D680F791F8A1F911DA11D3F
S1130A706A0F711D811D911DA11D20D009F4689478
S1130A803F912AE0269F11243019305D3193DEF620
S1130A90CF010895462F4770405D4193B3E00FD0D6
S1130AA0C9F7F6CF462F4F70405D4A3318F0495DC1
S1130AB031FD4052419302D0A9F7EACFB4E0A695A4
S1130AC09795879577956795BA95C9F700976105C6
S1130AD0710508959B01AC010A2E0694579547951C
S1130AE037952795BA95C9F7620F731F841F951F11
S1130AF0A01D08952F923F924F925F926F927F9222
S1130B008F929F92AF92BF92CF92DF92EF92FF9219
S1130B100F931F93CF93DF93CDB7DEB7CA1BDB0BC5
S1130B200FB6F894DEBF0FBECDBF09942A8839886A
S1130B3048885F846E847D848C849B84AA84B98471
S1130B40C884DF80EE80FD800C811B81AA81B9817D
S1130B50CE0FD11D0FB6F894DEBF0FBECDBFED0191
S1090B600895F894FFCF94
S1130B664B65797061645F76616C73202564006BF4
S1130B76705F76616C733A2025642020706F7274FE
S1130B86645F76616C733A2025642020706F7274FA
S1130B96625F76616C733A202564202050494E4288
S1130BA63A2025640A0D0069660A0D00706F727496
S1130BB6625F76616C73202564202020706F7274E6
S1130BC6645F76616C73202564200050494E422090
S1130BD62564202020004B65792070726573736547
S1130BE6642025642020200078787878003031321B
S1050BF63300C6
S9030000FC
