S01200004B6579706164546573742E7372656314
S11300000C9434000C9451000C9451000C94510045
S11300100C9451000C9451000C9451000C94510018
S11300200C9451000C9451000C9451000C94510008
S11300300C9451000C9451000C9451000C945100F8
S11300400C9451000C9451000C9451000C945100E8
S11300500C9451000C9451000C9451000C945100D8
S11300600C9451000C94510011241FBECFEFD8E022
S1130070DEBFCDBF11E0A0E0B1E0EEEDFFE002C0D5
S113008005900D92A032B107D9F721E0A0E2B1E0CA
S113009001C01D92A632B207E1F70E9453000C94EE
S11300A0ED070C940000CF93DF93CDB7DEB76C97C8
S11300B00FB6F894DEBF0FBECDBF2EE0CE01019681
S11300C0FC01322F11923A95E9F732E03C8343E97F
S11300D054E05A874987DE011F96FD0111922A9543
S11300E0E9F721E02A8B2AE934E03A8F298FE0E20C
S11300F0F1E093838283B183A08384B1816084B966
S113010084B1826084B984B1846084B984B1886024
S113011084B98AB1806F8AB989EF90E00197F1F7C9
S113012000C000008BB18F608BB985B18E7F85B91B
S11301309FE3EDE0F3E09150E040F040E1F700C0D0
S1130140000085B1816085B92FE33DE083E0215053
S113015030408040E1F700C0000085B18E7F85B952
S11301609FE3EDE0F3E09150E040F040E1F700C0A0
S1130170000089B18F30C9F229B19AB190959AB92A
S113018089EF90E00197F1F700C000009BB19095D2
S11301909BB9E9EFF0E03197F1F700C0000089B1B5
S11301A0822B90E08131910529F585B18E7F85B947
S11301B0FFE32DE033E0F15020403040E1F700C090
S11301C0000085B1816085B98FE39DE0E3E0815053
S11301D09040E040E1F700C0000085B18E7F85B912
S11301E0FFE32DE033E0F15020403040E1F700C060
S11301F0000086C381329105E1F585B18E7F85B912
S11302008FE39DE0E3E081509040E040E1F700C0DF
S1130210000085B1816085B9FFE32DE033E0F15042
S113022020403040E1F700C0000085B18E7F85B9E1
S11302308FE39DE0E3E081509040E040E1F700C0AF
S1130240000080E091E00E94F504809120019091EB
S113025021010E94A10499279F938F9382E091E04A
S11302609F938F930E94DF040F900F900F900F9035
S113027047C381349105E1F585B18E7F85B9FFE3EC
S11302802DE033E0F15020403040E1F700C00000A1
S113029085B1816085B98FE39DE0E3E081509040B2
S11302A0E040E1F700C0000085B18E7F85B9FFE32F
S11302B02DE033E0F15020403040E1F700C0000071
S11302C086E091E00E94F504809120019091210143
S11302D00E94A10499279F938F9382E091E09F93BA
S11302E08F930E94DF040F900F900F900F9008C31C
S11302F081389105E1F585B18E7F85B98FE39DE065
S1130300E3E081509040E040E1F700C0000085B197
S1130310816085B9FFE32DE033E0F15020403040A7
S1130320E1F700C0000085B18E7F85B98FE39DE0C1
S1130330E3E081509040E040E1F700C0000088E035
S113034091E00E94F50480912001909121010E9486
S1130350A10499279F938F9382E091E09F938F93B9
S11303600E94DF040F900F900F900F90C9C282314A
S11303709105E1F585B18E7F85B9FFE32DE033E08A
S1130380F15020403040E1F700C0000085B18160A9
S113039085B98FE39DE0E3E081509040E040E1F7D0
S11303A000C0000085B18E7F85B9FFE32DE033E006
S11303B0F15020403040E1F700C000008AE091E0B5
S11303C00E94F50480912001909121010E94A104D2
S11303D099279F938F9382E091E09F938F930E943C
S11303E0DF040F900F900F900F908AC28232910514
S11303F0E1F585B18E7F85B98FE39DE0E3E081501F
S11304009040E040E1F700C0000085B1816085B90B
S1130410FFE32DE033E0F15020403040E1F700C02D
S1130420000085B18E7F85B98FE39DE0E3E08150C4
S11304309040E040E1F700C000008CE091E00E94B1
S1130440F50480912001909121010E94A104992733
S11304509F938F9382E091E09F938F930E94DF0498
S11304600F900F900F900F904BC28234910529F595
S113047085B18E7F85B9FFE32DE033E0F150204054
S11304803040E1F700C0000085B1816085B98FE399
S11304909DE0E3E081509040E040E1F700C00000BF
S11304A085B18E7F85B9FFE32DE033E0F150204024
S11304B03040E1F700C0000023C282389105E1F525
S11304C085B18E7F85B98FE39DE0E3E08150904054
S11304D0E040E1F700C0000085B1816085B9FFE329
S11304E02DE033E0F15020403040E1F700C000003F
S11304F085B18E7F85B98FE39DE0E3E08150904024
S1130500E040E1F700C000008EE091E00E94F504B5
S113051080912001909121010E94A10499279F9329
S11305208F9382E091E09F938F930E94DF040F905A
S11305300F900F900F90E4C184319105E1F585B1DE
S11305408E7F85B9FFE32DE033E0F1502040304049
S1130550E1F700C0000085B1816085B98FE39DE0BB
S1130560E3E081509040E040E1F700C0000085B135
S11305708E7F85B9FFE32DE033E0F1502040304019
S1130580E1F700C0000080E191E00E94F504809151
S11305902001909121010E94A10499279F938F9398
S11305A082E091E09F938F930E94DF040F900F905D
S11305B00F900F90A5C184329105E1F585B18E7F2E
S11305C085B98FE39DE0E3E081509040E040E1F79E
S11305D000C0000085B1816085B9FFE32DE033E000
S11305E0F15020403040E1F700C0000085B18E7F1B
S11305F085B98FE39DE0E3E081509040E040E1F76E
S113060000C0000082E191E00E94F5048091200185
S1130610909121010E94A10499279F938F9382E0D6
S113062091E09F938F930E94DF040F900F900F909F
S11306300F9066C184349105E1F585B18E7F85B94B
S1130640FFE32DE033E0F15020403040E1F700C0FB
S1130650000085B1816085B98FE39DE0E3E08150BE
S11306609040E040E1F700C0000085B18E7F85B97D
S1130670FFE32DE033E0F15020403040E1F700C0CB
S1130680000084E191E00E94F504809120019091A2
S113069021010E94A10499279F938F9382E091E006
S11306A09F938F930E94DF040F900F900F900F90F1
S11306B027C184389105E1F585B18E7F85B98FE333
S11306C09DE0E3E081509040E040E1F700C000008D
S11306D085B1816085B9FFE32DE033E0F15020401E
S11306E03040E1F700C0000085B18E7F85B98FE30B
S11306F09DE0E3E081509040E040E1F700C000005D
S113070086E191E00E94F5048091200190912101FD
S11307100E94A10499279F938F9382E091E09F9375
S11307208F930E94DF040F900F900F900F90E8C0FA
S11307308831910549F585B18E7F85B9FFE32DE0B8
S113074033E0F15020403040E1F700C0000085B1B3
S1130750816085B98FE39DE0E3E081509040E04003
S1130760E1F700C0000085B18E7F85B9FFE32DE07D
S113077033E0F15020403040E1F700C0000088E150
S113078091E00E94F504BCC088329105E1F585B181
S11307908E7F85B98FE39DE0E3E081509040E04097
S11307A0E1F700C0000085B1816085B9FFE32DE069
S11307B033E0F15020403040E1F700C0000085B143
S11307C08E7F85B98FE39DE0E3E081509040E04067
S11307D0E1F700C000008AE191E00E94F5048091F5
S11307E02001909121010E94A10499279F938F9346
S11307F082E091E09F938F930E94DF040F900F900B
S11308000F900F907DC088349105E1F585B18E7FFE
S113081085B9FFE32DE033E0F15020403040E1F7AB
S113082000C0000085B1816085B98FE39DE0E3E0FD
S113083081509040E040E1F700C0000085B18E7F18
S113084085B9FFE32DE033E0F15020403040E1F77B
S113085000C000008CE191E00E94F5048091200129
S1130860909121010E94A10499279F938F9382E084
S113087091E09F938F930E94DF040F900F900F904D
S11308800F903EC088389105D9F585B18E7F85B922
S11308908FE39DE0E3E081509040E040E1F700C049
S11308A0000085B1816085B9FFE32DE033E0F150AC
S11308B020403040E1F700C0000085B18E7F85B94B
S11308C08FE39DE0E3E081509040E040E1F700C019
S11308D000008EE191E00E94F50480912001909146
S11308E021010E94A10499279F938F9382E091E0B4
S11308F09F938F930E94DF040F900F900F900F909F
S11309008AB180958AB989EF90E00197F1F700C028
S113091000008BB180958BB9E3ECF9E03197F1F7E6
S113092000C0000002CC9091C00095FFFCCF8093E2
S1130930C60008958091C0008823E4F78091C60022
S11309400895CF93DF93EC012B8120FF33C026FF62
S11309500AC02F7B2B838E819F8101969F838E8378
S11309608A8190E029C022FF0FC0E881F98180814B
S1130970082E000C990B009719F420622B831AC0DF
S11309803196F983E8830EC0EA85FB85099597FFC4
S113099009C02B81019611F080E201C080E1822B15
S11309A08B8308C02E813F812F5F3F4F3F832E836F
S11309B0992702C08FEF9FEFDF91CF910895A0E0B8
S11309C0B0E0E5EEF4E00C94C607AE014B5F5F4F78
S11309D0FA0161917191AF018091220190912301FB
S11309E00E942505E2E00C94E2070F931F93CF9336
S11309F0DF93E0912201F0912301238121FF1BC0A9
S1130A008C01D0E0C0E0F80181918F016091220156
S1130A1070912301DB011896ED91FC9119978823BD
S1130A2031F00995892B79F3DFEFCFEFECCF8AE032
S1130A300995892B19F08FEF9FEF02C08D2F9C2F02
S1130A40DF91CF911F910F910895ABE0B0E0EBE2FD
S1130A50F5E00C94B6076C017B018A01FC01178256
S1130A601682838181FFCCC1CE0101963C01F6013F
S1130A709381F70193FD859193FF81917F018823F1
S1130A8009F4BAC1853239F493FD859193FF8191BC
S1130A907F01853229F4B60190E00E941C07E7CF5C
S1130AA0912C212C312CFFE1F315D8F08B3279F005
S1130AB038F4803279F08332A1F4232D20611DC0F3
S1130AC08D3261F0803369F4232D216016C0832DAB
S1130AD08260382EE32DE4603E2E2AC0F32DF860A8
S1130AE01DC037FC2DC020ED280F2A3040F08E3277
S1130AF0B9F436FC81C1232D2064322E19C036FE90
S1130B0006C08AE0989E200D1124922E11C0EAE0BE
S1130B102E9E200D1124222EF32DF0623F2E08C0AC
S1130B208C3621F4832D8068382E02C0883641F437
S1130B30F70193FD859193FF81917F018111B3CFDB
S1130B40982F9F7D9554933028F40C5F1F4F9FE39B
S1130B5099830DC0833631F0833771F0833509F002
S1130B6059C021C0F801808189830E5F1F4F8824FA
S1130B708394912C530113C02801F2E04F0E511CB1
S1130B80F801A080B18036FE03C0692D70E002C078
S1130B906FEF7FEFC5010E9411074C018201F32D15
S1130BA0FF773F2E16C0280122E0420E511CF801A7
S1130BB0A080B18036FE03C0692D70E002C06FEFE3
S1130BC07FEFC5010E9406074C01F32DF0683F2E0C
S1130BD0820133FC1BC0822D90E088169906B0F484
S1130BE0B60180E290E00E941C072A94F4CFF5013C
S1130BF037FC859137FE81915F01B60190E00E9438
S1130C001C0721102A9421E0821A9108811491046E
S1130C1071F7E8C0843611F0893641F5F80137FEE2
S1130C2007C060817181828193810C5F1F4F08C06E
S1130C3060817181072E000C880B990B0E5F1F4F8A
S1130C40F32DFF763F2E97FF09C090958095709500
S1130C5061957F4F8F4F9F4FF0683F2E2AE030E021
S1130C60A3010E945807882E861845C0853731F4A1
S1130C70232D2F7EB22E2AE030E025C0932D997FBC
S1130C80B92E8F36C1F018F4883579F0B5C08037A5
S1130C9019F0883721F0B0C0E92FE061BE2EB4FE10
S1130CA00DC0FB2DF460BF2E09C034FE0AC0292FED
S1130CB02660B22E06C028E030E005C020E130E016
S1130CC002C020E132E0F801B7FE07C06081718103
S1130CD0828193810C5F1F4F06C06081718180E027
S1130CE090E00E5F1F4FA3010E945807882E8618BC
S1130CF0FB2DFF773F2E36FE0DC0232D2E7FA22E17
S1130D00891458F434FE0BC032FC09C0832D8E7E46
S1130D10A82E05C0B82CA32C03C0B82C01C0B92C34
S1130D20A4FE0FC0FE01E80DF11D8081803321F483
S1130D309A2D997EA92E09C0A2FE06C0B394B3943D
S1130D4004C08A2D867809F0B394A3FC11C0A0FED8
S1130D5006C0B21488F4280C922C9B180EC0B2144E
S1130D6060F4B60180E290E00E941C07B394F7CFD0
S1130D70B21418F42B1802C0982C212CA4FE10C015
S1130D80B60180E390E00E941C07A2FE17C0A1FCFC
S1130D9003C088E790E002C088E590E0B6010CC08B
S1130DA08A2D867859F0A1FE02C08BE201C080E250
S1130DB0A7FC8DE2B60190E00E941C07891438F468
S1130DC0B60180E390E00E941C079A94F7CF8A94BE
S1130DD0F301E80DF11D8081B60190E00E941C072B
S1130DE08110F5CF222009F442CEB60180E290E0D2
S1130DF00E941C072A94F6CFF6018681978102C0CF
S1130E008FEF9FEF2B96E2E10C94D207FC01059043
S1130E10615070400110D8F7809590958E0F9F1FF8
S1130E200895FC016150704001900110D8F780953D
S1130E3090958E0F9F1F08950F931F93CF93DF9369
S1130E40FB01238121FD03C08FEF9FEF2CC022FF04
S1130E5016C046815781248135814217530744F4D3
S1130E60A081B1819D012F5F3F4F318320838C93FB
S1130E70268137812F5F3F4F3783268314C08B0130
S1130E80EC01FB010084F185E02D0995892BE1F645
S1130E90D80116968D919C911797019617969C935D
S1130EA08E931697CE01DF91CF911F910F910895E4
S1130EB0FA01AA27283051F1203181F1E8946F9387
S1130EC06E7F6E5F7F4F8F4F9F4FAF4FB1E03ED02D
S1130ED0B4E03CD0670F781F891F9A1FA11D680FCB
S1130EE0791F8A1F911DA11D6A0F711D811D911DFE
S1130EF0A11D20D009F468943F912AE0269F112473
S1130F003019305D3193DEF6CF010895462F4770D6
S1130F10405D4193B3E00FD0C9F7F6CF462F4F7031
S1130F20405D4A3318F0495D31FD4052419302D08F
S1130F30A9F7EACFB4E0A695979587957795679535
S1130F40BA95C9F700976105710508959B01AC0135
S1130F500A2E06945795479537952795BA95C9F75C
S1130F60620F731F841F951FA01D08952F923F9237
S1130F704F925F926F927F928F929F92AF92BF92A5
S1130F80CF92DF92EF92FF920F931F93CF93DF9351
S1130F90CDB7DEB7CA1BDB0B0FB6F894DEBF0FBEAE
S1130FA0CDBF09942A88398848885F846E847D84FB
S1130FB08C849B84AA84B984C884DF80EE80FD80FD
S1130FC00C811B81AA81B981CE0FD11D0FB6F89473
S1110FD0DEBF0FBECDBFED010895F894FFCF34
S1130FDE320025630A00330041003400350042001C
S1130FEE37003800390043002A0030002300440043
S9030000FC
