S01200004B6579706164546573742E7372656314
S11300000C9434000C9449000C9449000C9449005D
S11300100C9449000C9449000C9449000C94490038
S11300200C9449000C9449000C9449000C94490028
S11300300C9449000C9449000C9449000C94490018
S11300400C9449000C9449000C9449000C94490008
S11300500C9449000C9449000C9449000C944900F8
S11300600C9449000C94490011241FBECFEFD8E032
S1130070DEBFCDBF11E0A0E0B1E0EEECF3E002C0E2
S113008005900D92AA30B107D9F70E9488000C940C
S1130090E5010C94000085B18E7F85B92FE38DE0D6
S11300A093E0215080409040E1F700C0000085B10A
S11300B0816085B92FE38DE093E02150804090402A
S11300C0E1F700C0000085B18E7F85B92FE38DE094
S11300D093E0215080409040E1F700C00000089573
S11300E00E94DC01892B79F00E944B000E944B0096
S11300F00E944B000E944B000E944B000E944B0048
S11301000E944B0002C00E944B0080E090E00895E2
S11301108AB18F608AB989EF90E00197F1F700C046
S1130120000080EF8BB9C0E0D0E089B1803FE9F3F3
S113013029B183EC99E00197F1F700C000009AB16E
S113014090959AB989EF90E00197F1F700C000000B
S11301509BB190959BB987EA91E60197F1F700C0AE
S1130160000089B1822B90E08737910579F481E30F
S1130170FE01E050FF4F8083FE01EB5FFE4F808164
S1130180813309F005C10E944B0002C18B379105F0
S113019079F482E3FE01E050FF4F8083FE01EB5FC0
S11301A0FE4F8081823309F0F3C00E944B00F0C0FF
S11301B08D37910579F483E3FE01E050FF4F80838E
S11301C0FE01EB5FFE4F8081833309F0E1C00E94A2
S11301D04B00DEC08E37910579F481E4FE01E050D6
S11301E0FF4F8083FE01EB5FFE4F8081813409F075
S11301F0CFC00E944B00CCC0873B910579F484E3C7
S1130200FE01E050FF4F8083FE01EB5FFE4F8081D3
S1130210843309F0BDC00E944B00BAC08B3B9105EA
S113022079F485E3FE01E050FF4F8083FE01EB5F2C
S1130230FE4F8081853309F0ABC00E944B00A8C0FB
S11302408D3B910579F486E3FE01E050FF4F8083F6
S1130250FE01EB5FFE4F8081863309F099C00E9456
S11302604B0096C08E3B910579F482E4FE01E05088
S1130270FF4F8083FE01EB5FFE4F8081823409F0E3
S113028087C00E944B0084C0873D910579F487E3C1
S1130290FE01E050FF4F8083FE01EB5FFE4F808143
S11302A0873309F075C00E944B0072C08B3D9105E5
S11302B079F488E3FE01E050FF4F8083FE01EB5F99
S11302C0FE4F8081883309F063C00E944B0060C0F8
S11302D08D3D910579F489E3FE01E050FF4F808361
S11302E0FE01EB5FFE4F8081893309F051C00E940B
S11302F04B004EC08E3D910579F483E4FE01E0503D
S1130300FF4F8083FE01EB5FFE4F8081833409F051
S11303103FC00E944B003CC0873E910571F48AE2C5
S1130320FE01E050FF4F8083FE01EB5FFE4F8081B2
S11303308A3271F50E944B002BC08B3E910571F4FB
S113034080E3FE01E050FF4F8083FE01EB5FFE4F30
S113035080818033E9F40E944B001AC08D3E9105E0
S113036039F460E071E085E091E00E94700010C013
S11303708E3E910569F484E4FE01E050FF4F8083D2
S1130380FE01EB5FFE4F8081843411F40E944B0028
S11303908AB180958AB989EF90E00197F1F700C09E
S11303A000008BB180958BB9219683EC99E001977D
S11303B0F1F700C00000B9CEFB01DC018D91019082
S11103C080190110D9F3990B0895F894FFCF1A
S10D03CE787878780030313233007B
S9030000FC
