:100000000C9434000C9451000C9451000C94510049
:100010000C9451000C9451000C9451000C9451001C
:100020000C9451000C9451000C9451000C9451000C
:100030000C9451000C9451000C9451000C945100FC
:100040000C9451000C9451000C9451000C945100EC
:100050000C9451000C9451000C9451000C945100DC
:100060000C9451000C94510011241FBECFEFD8E026
:10007000DEBFCDBF11E0A0E0B1E0EEE8F8E002C0E5
:1000800005900D92A231B107D9F721E0A2E1B1E0CC
:1000900001C01D92A831B207E1F70E9453000C94F1
:1000A00045040C940000CF93DF93CDB7DEB76C9777
:1000B0000FB6F894DEBF0FBECDBF8EE09E012F5F5E
:1000C0003F4F7901F901282F11922A95E9F792E023
:1000D0009C8329E531E03A8729878E01015F1F4F14
:1000E000F80111928A95E9F781E08A8B80E691E028
:1000F0009A8F898F87E690E00E944E01E2E1F1E05D
:10010000F382E2821183008384B1846084B984B174
:10011000886084B984B1806184B984B1806284B913
:100120008FE99FE00197F1F700C0000085B184607E
:1001300085B985B1886085B985B1806185B985B19A
:10014000806285B9EFE9FFE03197F1F700C0000068
:100150008AB18F7E8AB98AB18F7D8AB98AB18F7B45
:100160008AB98AB18F778AB98FE99FE00197F1F751
:1001700000C0000019B1107F89B11F928F9380E0F9
:1001800091E09F938F930E9467010F900F900F90C3
:100190000F901111EFCF8AE091E09F938F930E940F
:1001A00067018AB180618AB98AB180628AB98AB1ED
:1001B00080648AB98AB180688AB9EFE9FFE0319733
:1001C000F1F700C000008BB180618BB98BB1806208
:1001D0008BB98BB180648BB98BB180688BB98FE997
:1001E0009FE00197F1F700C0000084B18B7F84B9D4
:1001F00084B1877F84B984B1877F84B984B18F7ECD
:1002000084B9EFE9FFE03197F1F700C0000083B156
:1002100083B11F928F9385E091E09F938F930E940B
:10022000670184B1846084B984B1886084B984B181
:10023000806184B984B1806284B98FE99FE00197BD
:10024000F1F700C0000085B1846085B985B1886090
:1002500085B985B1806185B985B1806285B9EFE9DD
:10026000FFE03197F1F700C000008AB18F7E8AB9B4
:100270008AB18F7D8AB98AB18F7B8AB98AB18F772B
:100280008AB98FE99FE00197F1F700C000000F9055
:100290000F900F900F900F900F906CCF9093C50020
:1002A0008093C40088E18093C1008EE08093C200F7
:1002B00008959091C00095FFFCCF8093C6000895EB
:1002C0008091C0008823E4F78091C6000895A0E0E3
:1002D000B0E0EDE6F1E00C941E04AE014B5F5F4F21
:1002E000FA0161917191AF01809114019091150112
:1002F0000E947D01E2E00C943A04ABE0B0E0E3E858
:10030000F1E00C940E046C017B018A01FC01178260
:100310001682838181FFCCC1CE0101963C01F6019A
:100320009381F70193FD859193FF81917F0188234C
:1003300009F4BAC1853239F493FD859193FF819117
:100340007F01853229F4B60190E00E947403E7CF63
:10035000912C212C312CFFE1F315D8F08B3279F060
:1003600038F4803279F08332A1F4232D20611DC04E
:100370008D3261F0803369F4232D216016C0832D06
:100380008260382EE32DE4603E2E2AC0F32DF86003
:100390001DC037FC2DC020ED280F2A3040F08E32D2
:1003A000B9F436FC81C1232D2064322E19C036FEEB
:1003B00006C08AE0989E200D1124922E11C0EAE01A
:1003C0002E9E200D1124222EF32DF0623F2E08C008
:1003D0008C3621F4832D8068382E02C0883641F493
:1003E000F70193FD859193FF81917F018111B3CF37
:1003F000982F9F7D9554933028F40C5F1F4F9FE3F7
:1004000099830DC0833631F0833771F0833509F05D
:1004100059C021C0F801808189830E5F1F4F882455
:100420008394912C530113C02801F2E04F0E511C0C
:10043000F801A080B18036FE03C0692D70E002C0D3
:100440006FEF7FEFC5010E9469034C018201F32D1C
:10045000FF773F2E16C0280122E0420E511CF80102
:10046000A080B18036FE03C0692D70E002C06FEF3E
:100470007FEFC5010E945E034C01F32DF0683F2E13
:10048000820133FC1BC0822D90E088169906B0F4DF
:10049000B60180E290E00E9474032A94F4CFF50143
:1004A00037FC859137FE81915F01B60190E00E9493
:1004B000740321102A9421E0821A91088114910476
:1004C00071F7E8C0843611F0893641F5F80137FE3E
:1004D00007C060817181828193810C5F1F4F08C0CA
:1004E00060817181072E000C880B990B0E5F1F4FE6
:1004F000F32DFF763F2E97FF09C09095809570955C
:1005000061957F4F8F4F9F4FF0683F2E2AE030E07C
:10051000A3010E94B003882E861845C0853731F4A8
:10052000232D2F7EB22E2AE030E025C0932D997F17
:10053000B92E8F36C1F018F4883579F0B5C0803700
:1005400019F0883721F0B0C0E92FE061BE2EB4FE6B
:100550000DC0FB2DF460BF2E09C034FE0AC0292F48
:100560002660B22E06C028E030E005C020E130E071
:1005700002C020E132E0F801B7FE07C0608171815E
:10058000828193810C5F1F4F06C06081718180E082
:1005900090E00E5F1F4FA3010E94B003882E8618C3
:1005A000FB2DFF773F2E36FE0DC0232D2E7FA22E72
:1005B000891458F434FE0BC032FC09C0832D8E7EA2
:1005C000A82E05C0B82CA32C03C0B82C01C0B92C90
:1005D000A4FE0FC0FE01E80DF11D8081803321F4DF
:1005E0009A2D997EA92E09C0A2FE06C0B394B39499
:1005F00004C08A2D867809F0B394A3FC11C0A0FE34
:1006000006C0B21488F4280C922C9B180EC0B214A9
:1006100060F4B60180E290E00E947403B394F7CFD7
:10062000B21418F42B1802C0982C212CA4FE10C070
:10063000B60180E390E00E947403A2FE17C0A1FC03
:1006400003C088E790E002C088E590E0B6010CC0E6
:100650008A2D867859F0A1FE02C08BE201C080E2AB
:10066000A7FC8DE2B60190E00E947403891438F46F
:10067000B60180E390E00E9474039A94F7CF8A94C5
:10068000F301E80DF11D8081B60190E00E94740332
:100690008110F5CF222009F442CEB60180E290E02D
:1006A0000E9474032A94F6CFF6018681978102C0D6
:1006B0008FEF9FEF2B96E2E10C942A04FC0105904A
:1006C000615070400110D8F7809590958E0F9F1F54
:1006D0000895FC016150704001900110D8F7809599
:1006E00090958E0F9F1F08950F931F93CF93DF93C5
:1006F000FB01238121FD03C08FEF9FEF2CC022FF60
:1007000016C046815781248135814217530744F42E
:10071000A081B1819D012F5F3F4F318320838C9356
:10072000268137812F5F3F4F3783268314C08B018B
:10073000EC01FB010084F185E02D0995892BE1F6A0
:10074000D80116968D919C911797019617969C93B8
:100750008E931697CE01DF91CF911F910F9108953F
:10076000FA01AA27283051F1203181F1E8946F93E2
:100770006E7F6E5F7F4F8F4F9F4FAF4FB1E03ED088
:10078000B4E03CD0670F781F891F9A1FA11D680F26
:10079000791F8A1F911DA11D6A0F711D811D911D59
:1007A000A11D20D009F468943F912AE0269F1124CE
:1007B0003019305D3193DEF6CF010895462F477032
:1007C000405D4193B3E00FD0C9F7F6CF462F4F708D
:1007D000405D4A3318F0495D31FD4052419302D0EB
:1007E000A9F7EACFB4E0A695979587957795679591
:1007F000BA95C9F700976105710508959B01AC0191
:100800000A2E06945795479537952795BA95C9F7B7
:10081000620F731F841F951FA01D08952F923F9292
:100820004F925F926F927F928F929F92AF92BF9200
:10083000CF92DF92EF92FF920F931F93CF93DF93AC
:10084000CDB7DEB7CA1BDB0B0FB6F894DEBF0FBE09
:10085000CDBF09942A88398848885F846E847D8456
:100860008C849B84AA84B984C884DF80EE80FD8058
:100870000C811B81AA81B981CE0FD11D0FB6F894CE
:0E088000DEBF0FBECDBFED010895F894FFCF8F
:10088E0050494E442025640A0D006C6F6F700A0D9E
:02089E00000058
:00000001FF
