S01200004B6579706164546573742E7372656314
S11300000C9434000C9451000C9451000C94510045
S11300100C9451000C9451000C9451000C94510018
S11300200C9451000C9451000C9451000C94510008
S11300300C9451000C9451000C9451000C945100F8
S11300400C9451000C9451000C9451000C945100E8
S11300500C9451000C9451000C9451000C945100D8
S11300600C9451000C94510011241FBECFEFD8E022
S1130070DEBFCDBF11E0A0E0B1E0E0E1FBE002C0F3
S113008005900D92A838B107D9F721E0A8E8B1E0AE
S113009001C01D92AE38B207E1F70E9490000C94A3
S11300A086050C9400008BB1877F8BB92FEF83ED0D
S11300B090E3215080409040E1F700C000008BB1F4
S11300C088608BB92FEF83ED90E3215080409040FE
S11300D0E1F700C000008BB1877F8BB92FEF83ED70
S11300E090E3215080409040E1F700C00000089563
S11300F00E949F02892B89F00E9453000E945300A2
S11301000E9453000E9453000E9453000E94530017
S11301100E94530080E090E0089581E090E008950B
S1130120CF93DF93CDB7DEB76C970FB6F894DEBFED
S11301300FBECDBF8EE09E012F5F3F4F7901F901C5
S1130140282F11922A95E9F792E09C8321E932E065
S11301503A8729878E01015F1F4FF80111928A9512
S1130160E9F781E08A8B88E992E09A8F898F87E6A4
S113017090E00E948602E8E8F1E0F382E2821183D3
S113018000838AB18F738AB984B18C7F84B984B1B6
S11301908C6384B9FFEF21EE34E0F150204030400D
S11301A0E1F700C000008BB1806C8BB985B183602E
S11301B085B98FEF91EEE4E081509040E040E1F7A3
S11301C000C00000C12CD12CFFEF21EE34E0F1502F
S11301D020403040E1F700C00000E9B0E694E69426
S11301E0E694E694E694E69403B110E0000F111F40
S11301F0000F111FFE2CF02A1F92FF9280E091E065
S11302009F938F930E94A8028F2D8F70F82E89B12F
S1130210B12C1F928F9311271F930F931F92EF926C
S11302201F92FF928FE091E09F938F930E94A80208
S11302300FB6F894DEBF0FBECDBFFFE0FF1621F26C
S113024087E491E09F938F930E94A8028FE39CE937
S11302500197F1F700C0000089B1829586958695D3
S1130260837003B110E0000F111F000F111F1F92C4
S11302708F93C80199279F938F938EE491E09F9366
S11302808F930E94A802007FBF92FF928CE691E0B8
S11302909F938F930E94A8020F291F920F9382E4C9
S11302A091E09F938F930E94A8020FB6F894DEBF4B
S11302B00FBECDBF073779F481E3F601E258FE4F54
S11302C08083F601ED57FE4F8081813309F0F5C03C
S11302D00E945300F2C00B3779F482E3F601E2582E
S11302E0FE4F8083F601ED57FE4F8081823309F083
S11302F0E4C00E945300E1C00D3779F483E3F601B2
S1130300E258FE4F8083F601ED57FE4F8081833320
S113031009F0D3C00E945300D0C00E3779F481E4B1
S1130320F601E258FE4F8083F601ED57FE4F8081BF
S1130330813409F0C2C00E945300BFC0073B79F466
S113034084E3F601E258FE4F8083F601ED57FE4F39
S11303508081843309F0B1C00E945300AEC00B3BCE
S113036079F485E3F601E258FE4F8083F601ED57F8
S1130370FE4F8081853309F0A0C00E9453009DC0C8
S11303800D3B79F486E3F601E258FE4F8083F601D3
S1130390ED57FE4F8081863309F08FC00E945300D1
S11303A08CC00E3B79F482E4F601E258FE4F808360
S11303B0F601ED57FE4F8081823409F07EC00E9421
S11303C053007BC0073D79F487E3F601E258FE4F02
S11303D08083F601ED57FE4F8081873309F06DC0AD
S11303E00E9453006AC00B3D79F488E3F601E25899
S11303F0FE4F8083F601ED57FE4F8081883309F06C
S11304005CC00E94530059C00D3D79F489E3F601A4
S1130410E258FE4F8083F601ED57FE4F8081893309
S113042009F04BC00E94530048C00E3D71F483E4B0
S1130430F601E258FE4F8083F601ED57FE4F8081AE
S11304408334D9F50E94530038C0073E71F48AE220
S1130450F601E258FE4F8083F601ED57FE4F80818E
S11304608A3259F50E94530028C00B3E71F480E390
S1130470F601E258FE4F8083F601ED57FE4F80816E
S11304808033D9F40E94530018C00D3E39F46EE74E
S113049071E083E891E00E9478000FC00E3E69F499
S11304A084E4F601E258FE4F8083F601ED57FE4FD7
S11304B08081843411F40E9453008AB18F738AB905
S11304C084B18C7F84B984B18C6384B9FFEF21EE4D
S11304D034E0F15020403040E1F700C0000080ECEF
S11304E08BB983E085B98FEF91EEE4E081509040C1
S11304F0E040E1F700C00000FFEFCF1ADF0A8FE30E
S11305009CE90197F1F700C000005ECE9093C5000E
S11305108093C40088E18093C1008EE08093C20080
S113052008959091C00095FFFCCF8093C600089574
S11305308091C0008823E4F78091C6000895FB01F0
S1130540DC018D91019080190110D9F3990B089564
S1130550A0E0B0E0EEEAF2E00C945F05AE014B5F80
S11305605F4FFA0161917191AF0180918A0190917D
S11305708B010E94BE02E2E00C947B05ABE0B0E08C
S1130580E4ECF2E00C944F056C017B018A01FC0160
S113059017821682838181FFCCC1CE0101963C0172
S11305A0F6019381F70193FD859193FF81917F017A
S11305B0882309F4BAC1853239F493FD859193FFF8
S11305C081917F01853229F4B60190E00E94B5043F
S11305D0E7CF912C212C312CFFE1F315D8F08B328D
S11305E079F038F4803279F08332A1F4232D20613C
S11305F01DC08D3261F0803369F4232D216016C053
S1130600832D8260382EE32DE4603E2E2AC0F32D24
S1130610F8601DC037FC2DC020ED280F2A3040F0B3
S11306208E32B9F436FC81C1232D2064322E19C0D8
S113063036FE06C08AE0989E200D1124922E11C029
S1130640EAE02E9E200D1124222EF32DF0623F2E7F
S113065008C08C3621F4832D8068382E02C0883679
S113066041F4F70193FD859193FF81917F018111FD
S1130670B3CF982F9F7D9554933028F40C5F1F4F70
S11306809FE399830DC0833631F0833771F083354E
S113069009F059C021C0F801808189830E5F1F4F82
S11306A088248394912C530113C02801F2E04F0E47
S11306B0511CF801A080B18036FE03C0692D70E0A2
S11306C002C06FEF7FEFC5010E94AA044C018201B2
S11306D0F32DFF773F2E16C0280122E0420E511C55
S11306E0F801A080B18036FE03C0692D70E002C01D
S11306F06FEF7FEFC5010E949F044C01F32DF0685A
S11307003F2E820133FC1BC0822D90E0881699068F
S1130710B0F4B60180E290E00E94B5042A94F4CFCC
S1130720F50137FC859137FE81915F01B60190E0B8
S11307300E94B50421102A9421E0821A91088114A0
S1130740910471F7E8C0843611F0893641F5F80157
S113075037FE07C060817181828193810C5F1F4FD6
S113076008C060817181072E000C880B990B0E5F05
S11307701F4FF32DFF763F2E97FF09C0909580956C
S1130780709561957F4F8F4F9F4FF0683F2E2AE001
S113079030E0A3010E94F104882E861845C08537F5
S11307A031F4232D2F7EB22E2AE030E025C0932D84
S11307B0997FB92E8F36C1F018F4883579F0B5C019
S11307C0803719F0883721F0B0C0E92FE061BE2EE0
S11307D0B4FE0DC0FB2DF460BF2E09C034FE0AC068
S11307E0292F2660B22E06C028E030E005C020E1A3
S11307F030E002C020E132E0F801B7FE07C06081BA
S11308007181828193810C5F1F4F06C06081718169
S113081080E090E00E5F1F4FA3010E94F104882E38
S11308208618FB2DFF773F2E36FE0DC0232D2E7F1D
S1130830A22E891458F434FE0BC032FC09C0832D57
S11308408E7EA82E05C0B82CA32C03C0B82C01C0E2
S1130850B92CA4FE0FC0FE01E80DF11D8081803388
S113086021F49A2D997EA92E09C0A2FE06C0B39444
S1130870B39404C08A2D867809F0B394A3FC11C004
S1130880A0FE06C0B21488F4280C922C9B180EC04B
S1130890B21460F4B60180E290E00E94B504B3940F
S11308A0F7CFB21418F42B1802C0982C212CA4FEF4
S11308B010C0B60180E390E00E94B504A2FE17C008
S11308C0A1FC03C088E790E002C088E590E0B6018F
S11308D00CC08A2D867859F0A1FE02C08BE201C0BB
S11308E080E2A7FC8DE2B60190E00E94B504891471
S11308F038F4B60180E390E00E94B5049A94F7CFEF
S11309008A94F301E80DF11D8081B60190E00E9404
S1130910B5048110F5CF222009F442CEB60180E25D
S113092090E00E94B5042A94F6CFF601868197815F
S113093002C08FEF9FEF2B96E2E10C946B05FC0154
S11309400590615070400110D8F7809590958E0FF6
S11309509F1F0895FC016150704001900110D8F769
S1130960809590958E0F9F1F08950F931F93CF939B
S1130970DF93FB01238121FD03C08FEF9FEF2CC088
S113098022FF16C0468157812481358142175307BF
S113099044F4A081B1819D012F5F3F4F31832083B7
S11309A08C93268137812F5F3F4F3783268314C072
S11309B08B01EC01FB010084F185E02D0995892B65
S11309C0E1F6D80116968D919C911797019617968A
S11309D09C938E931697CE01DF91CF911F910F9127
S11309E00895FA01AA27283051F1203181F1E894C1
S11309F06F936E7F6E5F7F4F8F4F9F4FAF4FB1E00E
S1130A003ED0B4E03CD0670F781F891F9A1FA11D08
S1130A10680F791F8A1F911DA11D6A0F711D811D09
S1130A20911DA11D20D009F468943F912AE0269FCE
S1130A3011243019305D3193DEF6CF010895462F2D
S1130A404770405D4193B3E00FD0C9F7F6CF462F0E
S1130A504F70405D4A3318F0495D31FD4052419377
S1130A6002D0A9F7EACFB4E0A69597958795779534
S1130A706795BA95C9F700976105710508959B01BB
S1130A80AC010A2E06945795479537952795BA9544
S1130A90C9F7620F731F841F951FA01D08952F921D
S1130AA03F924F925F926F927F928F929F92AF92FA
S1130AB0BF92CF92DF92EF92FF920F931F93CF9347
S1130AC0DF93CDB7DEB7CA1BDB0B0FB6F894DEBFDE
S1130AD00FBECDBF09942A88398848885F846E8404
S1130AE07D848C849B84AA84B984C884DF80EE804E
S1130AF0FD800C811B81AA81B981CE0FD11D0FB657
S1130B00F894DEBF0FBECDBFED010895F894FFCF7A
S1130B104B65797061645F76616C73202564006B4A
S1130B20705F76616C733A2025642020706F727454
S1130B30645F76616C733A2025642020706F727450
S1130B40625F76616C733A202564202050494E44DC
S1130B503A2025640A0D006C6F6F700A0D00706FE7
S1130B607274625F76616C73202564202020706F3C
S1130B707274645F76616C73202564004B65792020
S1130B807072657373656420256420202000787872
S10B0B907878003031323300A3
S9030000FC
