:100000000C9434000C9451000C9451000C94510049
:100010000C9451000C9451000C9451000C9451001C
:100020000C9451000C9451000C9451000C9451000C
:100030000C9451000C9451000C9451000C945100FC
:100040000C9451000C9451000C9451000C945100EC
:100050000C9451000C9451000C9451000C945100DC
:100060000C9451000C94510011241FBECFEFD8E026
:10007000DEBFCDBF11E0A0E0B1E0EEE4FBE002C0E6
:1000800005900D92A43AB107D9F721E0A4EAB1E0B6
:1000900001C01D92AA3AB207E1F70E9490000C94A9
:1000A000A5050C9400008BB1877F8BB92FEF83EDF2
:1000B00090E3215080409040E1F700C000008BB1F8
:1000C00088608BB92FEF83ED90E321508040904002
:1000D000E1F700C000008BB1877F8BB92FEF83ED74
:1000E00090E3215080409040E1F700C00000089567
:1000F0000E94BE02892B89F00E9453000E94530087
:100100000E9453000E9453000E9453000E9453001B
:100110000E94530080E090E0089581E090E008950F
:10012000CF93DF93CDB7DEB76C970FB6F894DEBFF1
:100130000FBECDBF8EE09E012F5F3F4F7901F901C9
:10014000282F11922A95E9F792E09C8320EB32E068
:100150003A8729878E01015F1F4FF80111928A9516
:10016000E9F781E08A8B87EB92E09A8F898F87E6A7
:1001700090E00E94A502E4EAF1E0F382E2821183BA
:1001800000838AB18F738AB98CE384B98FE39CE9C9
:100190000197F1F700C000008BB1806C8BB985B17D
:1001A000836085B985B1837C85B9EFE3FCE931973C
:1001B000F1F700C00000E12CF12CFFEF21EE34E05C
:1001C000F15020403040E1F700C0000029B12295F5
:1001D00026952695237083B190E0880F991F880F8C
:1001E000991F122F182B1F7033B1D12C1F923F93E0
:1001F00099279F938F931F922F931F921F9380E0B5
:1002000091E09F938F930E94C7020FB6F894DEBFD0
:100210000FBECDBF112389F288E391E09F938F93A6
:100220000E94C702EFE3FCE93197F1F700C000003C
:100230008AB18F738AB98CE384B98FE39CE9019703
:10024000F1F700C0000085B18C6385B99FEFE1EE46
:10025000F4E09150E040F040E1F700C00000A9B0A8
:100260000A2D0295069506950370A3B0B12CAA0C31
:10027000BB1CAA0CBB1C99B183B11F929F931F9208
:100280008F931F920F93C50199279F938F938DE3AF
:1002900091E09F938F930E94C7028FE39CE901979F
:1002A000F1F700C00000A02A1F92AF928BE691E008
:1002B0009F938F930E94C70283B11F928F938DE704
:1002C00091E09F938F930E94C702DF921F9388E86B
:1002D00091E09F938F930E94C702EFE3FCE931976F
:1002E000F1F700C000001A291F921F9383E391E0E9
:1002F0009F938F930E94C7020FB6F894DEBF0FBE84
:10030000CDBF173779F481E3F701E656FE4F8083BE
:10031000F701E156FE4F8081813309F0F5C00E945C
:100320005300F2C01B3779F482E3F701E656FE4F23
:100330008083F701E156FE4F8081823309F0E4C0EB
:100340000E945300E1C01D3779F483E3F701E656BC
:10035000FE4F8083F701E156FE4F8081833309F021
:10036000D3C00E945300D0C01E3779F481E4F70156
:10037000E656FE4F8083F701E156FE4F80818134BF
:1003800009F0C2C00E945300BFC0173B79F484E358
:10039000F701E656FE4F8083F701E156FE4F80815C
:1003A000843309F0B1C00E945300AEC01B3B79F406
:1003B00085E3F701E656FE4F8083F701E156FE4FD5
:1003C0008081853309F0A0C00E9453009DC01D3B71
:1003D00079F486E3F701E656FE4F8083F701E15694
:1003E000FE4F8081863309F08FC00E9453008CC07D
:1003F0001E3B79F482E4F701E656FE4F8083F70155
:10040000E156FE4F8081823409F07EC00E94530085
:100410007BC0173D79F487E3F701E656FE4F8083F2
:10042000F701E156FE4F8081873309F06DC00E94CD
:1004300053006AC01B3D79F488E3F701E656FE4F8E
:100440008083F701E156FE4F8081883309F05CC05C
:100450000E94530059C01D3D79F489E3F701E65627
:10046000FE4F8083F701E156FE4F8081893309F00A
:100470004BC00E94530048C01E3D71F483E4F70155
:10048000E656FE4F8083F701E156FE4F80818334AC
:10049000D9F50E94530038C0173E71F48AE2F70183
:1004A000E656FE4F8083F701E156FE4F80818A3287
:1004B00059F50E94530028C01B3E71F480E3F701F8
:1004C000E656FE4F8083F701E156FE4F8081803370
:1004D000D9F40E94530018C01D3E39F46AE971E056
:1004E0008FE991E00E9478000FC01E3E69F484E419
:1004F000F701E656FE4F8083F701E156FE4F8081FB
:10050000843411F40E9453008AB1806C8AB983E06C
:1005100084B98FE39CE90197F1F700C000008BB12B
:10052000806C8BB985B1836085B9EFE3FCE93197C5
:10053000F1F700C00000FFEFEF1AFF0A8FE39CE91C
:100540000197F1F700C0000038CE9093C50080936A
:10055000C40088E18093C1008EE08093C2000895BA
:100560009091C00095FFFCCF8093C60008958091C4
:10057000C0008823E4F78091C6000895FB01DC01E8
:100580008D91019080190110D9F3990B0895A0E085
:10059000B0E0EDECF2E00C947E05AE014B5F5F4FF6
:1005A000FA0161917191AF018091A6019091A7012B
:1005B0000E94DD02E2E00C949A05ABE0B0E0E3EECD
:1005C000F2E00C946E056C017B018A01FC0117823C
:1005D0001682838181FFCCC1CE0101963C01F601D8
:1005E0009381F70193FD859193FF81917F0188238A
:1005F00009F4BAC1853239F493FD859193FF819155
:100600007F01853229F4B60190E00E94D404E7CF3F
:10061000912C212C312CFFE1F315D8F08B3279F09D
:1006200038F4803279F08332A1F4232D20611DC08B
:100630008D3261F0803369F4232D216016C0832D43
:100640008260382EE32DE4603E2E2AC0F32DF86040
:100650001DC037FC2DC020ED280F2A3040F08E320F
:10066000B9F436FC81C1232D2064322E19C036FE28
:1006700006C08AE0989E200D1124922E11C0EAE057
:100680002E9E200D1124222EF32DF0623F2E08C045
:100690008C3621F4832D8068382E02C0883641F4D0
:1006A000F70193FD859193FF81917F018111B3CF74
:1006B000982F9F7D9554933028F40C5F1F4F9FE334
:1006C00099830DC0833631F0833771F0833509F09B
:1006D00059C021C0F801808189830E5F1F4F882493
:1006E0008394912C530113C02801F2E04F0E511C4A
:1006F000F801A080B18036FE03C0692D70E002C011
:100700006FEF7FEFC5010E94C9044C018201F32DF8
:10071000FF773F2E16C0280122E0420E511CF8013F
:10072000A080B18036FE03C0692D70E002C06FEF7B
:100730007FEFC5010E94BE044C01F32DF0683F2EEF
:10074000820133FC1BC0822D90E088169906B0F41C
:10075000B60180E290E00E94D4042A94F4CFF5011F
:1007600037FC859137FE81915F01B60190E00E94D0
:10077000D40421102A9421E0821A91088114910452
:1007800071F7E8C0843611F0893641F5F80137FE7B
:1007900007C060817181828193810C5F1F4F08C007
:1007A00060817181072E000C880B990B0E5F1F4F23
:1007B000F32DFF763F2E97FF09C090958095709599
:1007C00061957F4F8F4F9F4FF0683F2E2AE030E0BA
:1007D000A3010E941005882E861845C0853731F484
:1007E000232D2F7EB22E2AE030E025C0932D997F55
:1007F000B92E8F36C1F018F4883579F0B5C080373E
:1008000019F0883721F0B0C0E92FE061BE2EB4FEA8
:100810000DC0FB2DF460BF2E09C034FE0AC0292F85
:100820002660B22E06C028E030E005C020E130E0AE
:1008300002C020E132E0F801B7FE07C0608171819B
:10084000828193810C5F1F4F06C06081718180E0BF
:1008500090E00E5F1F4FA3010E941005882E86189E
:10086000FB2DFF773F2E36FE0DC0232D2E7FA22EAF
:10087000891458F434FE0BC032FC09C0832D8E7EDF
:10088000A82E05C0B82CA32C03C0B82C01C0B92CCD
:10089000A4FE0FC0FE01E80DF11D8081803321F41C
:1008A0009A2D997EA92E09C0A2FE06C0B394B394D6
:1008B00004C08A2D867809F0B394A3FC11C0A0FE71
:1008C00006C0B21488F4280C922C9B180EC0B214E7
:1008D00060F4B60180E290E00E94D404B394F7CFB4
:1008E000B21418F42B1802C0982C212CA4FE10C0AE
:1008F000B60180E390E00E94D404A2FE17C0A1FCE0
:1009000003C088E790E002C088E590E0B6010CC023
:100910008A2D867859F0A1FE02C08BE201C080E2E8
:10092000A7FC8DE2B60190E00E94D404891438F44B
:10093000B60180E390E00E94D4049A94F7CF8A94A1
:10094000F301E80DF11D8081B60190E00E94D4040E
:100950008110F5CF222009F442CEB60180E290E06A
:100960000E94D4042A94F6CFF6018681978102C0B2
:100970008FEF9FEF2B96E2E10C948A05FC01059026
:10098000615070400110D8F7809590958E0F9F1F91
:100990000895FC016150704001900110D8F78095D6
:1009A00090958E0F9F1F08950F931F93CF93DF9302
:1009B000FB01238121FD03C08FEF9FEF2CC022FF9D
:1009C00016C046815781248135814217530744F46C
:1009D000A081B1819D012F5F3F4F318320838C9394
:1009E000268137812F5F3F4F3783268314C08B01C9
:1009F000EC01FB010084F185E02D0995892BE1F6DE
:100A0000D80116968D919C911797019617969C93F5
:100A10008E931697CE01DF91CF911F910F9108957C
:100A2000FA01AA27283051F1203181F1E8946F931F
:100A30006E7F6E5F7F4F8F4F9F4FAF4FB1E03ED0C5
:100A4000B4E03CD0670F781F891F9A1FA11D680F63
:100A5000791F8A1F911DA11D6A0F711D811D911D96
:100A6000A11D20D009F468943F912AE0269F11240B
:100A70003019305D3193DEF6CF010895462F47706F
:100A8000405D4193B3E00FD0C9F7F6CF462F4F70CA
:100A9000405D4A3318F0495D31FD4052419302D028
:100AA000A9F7EACFB4E0A6959795879577956795CE
:100AB000BA95C9F700976105710508959B01AC01CE
:100AC0000A2E06945795479537952795BA95C9F7F5
:100AD000620F731F841F951FA01D08952F923F92D0
:100AE0004F925F926F927F928F929F92AF92BF923E
:100AF000CF92DF92EF92FF920F931F93CF93DF93EA
:100B0000CDB7DEB7CA1BDB0B0FB6F894DEBF0FBE46
:100B1000CDBF09942A88398848885F846E847D8493
:100B20008C849B84AA84B984C884DF80EE80FD8095
:100B30000C811B81AA81B981CE0FD11D0FB6F8940B
:0E0B4000DEBF0FBECDBFED010895F894FFCFCC
:100B4E006B705F76616C733A2025642020706F7233
:100B5E0074645F76616C733A2025642020706F7226
:100B6E0074625F76616C733A202564202050494E82
:100B7E00423A2025640A0D0069660A0D00706F72F4
:100B8E0074625F76616C73202564202020706F7212
:100B9E0074645F76616C732025642050494E422048
:100BAE0025642050494E44202564004B65797061C0
:100BBE00642076616C732025642020200050494EFD
:100BCE0042202564202020004B65792070726573C9
:100BDE0073656420256420202000787878780030B2
:040BEE00313233006D
:00000001FF
