:100000000C9434000C943E000C943E000C943E0082
:100010000C943E000C943E000C943E000C943E0068
:100020000C943E000C943E000C943E000C943E0058
:100030000C943E000C943E000C943E000C943E0048
:100040000C943E000C943E000C943E000C943E0038
:100050000C943E000C943E000C943E000C943E0028
:100060000C943E000C943E0011241FBECFEFD8E04C
:10007000DEBFCDBF0E9440000C9408030C9400002A
:1000800084B1816084B984B1826084B984B18460B0
:1000900084B984B1886084B98AB18F608AB989EFE4
:1000A00090E00197F1F700C0000080EF8BB989B1B3
:1000B000803FE9F329B183EC99E00197F1F700C0A3
:1000C00000009AB190959AB989EF90E00197F1F705
:1000D00000C000009BB190959BB987EA91E601971B
:1000E000F1F700C0000089B1822B90E087379105BD
:1000F00029F585B18E7F85B99FE32DE083E091508E
:1001000020408040E1F700C0000085B1816085B9E2
:100110009FE32DE083E0915020408040E1F700C054
:10012000000085B18E7F85B99FE32DE083E091507B
:1001300020408040E1F700C0000057C28B37910596
:1001400029F585B18E7F85B99FE32DE083E091503D
:1001500020408040E1F700C0000085B1816085B992
:100160009FE32DE083E0915020408040E1F700C004
:10017000000085B18E7F85B99FE32DE083E091502B
:1001800020408040E1F700C000002FC28D3791056C
:1001900029F585B18E7F85B99FE32DE083E09150ED
:1001A00020408040E1F700C0000085B1816085B942
:1001B0009FE32DE083E0915020408040E1F700C0B4
:1001C000000085B18E7F85B99FE32DE083E09150DB
:1001D00020408040E1F700C0000007C28E37910543
:1001E00029F585B18E7F85B99FE32DE083E091509D
:1001F00020408040E1F700C0000085B1816085B9F2
:100200009FE32DE083E0915020408040E1F700C063
:10021000000085B18E7F85B99FE32DE083E091508A
:1002200020408040E1F700C00000DFC1873B91051E
:1002300029F585B18E7F85B99FE32DE083E091504C
:1002400020408040E1F700C0000085B1816085B9A1
:100250009FE32DE083E0915020408040E1F700C013
:10026000000085B18E7F85B99FE32DE083E091503A
:1002700020408040E1F700C00000B7C18B3B9105F2
:1002800029F585B18E7F85B99FE32DE083E09150FC
:1002900020408040E1F700C0000085B1816085B951
:1002A0009FE32DE083E0915020408040E1F700C0C3
:1002B000000085B18E7F85B99FE32DE083E09150EA
:1002C00020408040E1F700C000008FC18D3B9105C8
:1002D00029F585B18E7F85B99FE32DE083E09150AC
:1002E00020408040E1F700C0000085B1816085B901
:1002F0009FE32DE083E0915020408040E1F700C073
:10030000000085B18E7F85B99FE32DE083E0915099
:1003100020408040E1F700C0000067C18E3B91059E
:1003200029F585B18E7F85B99FE32DE083E091505B
:1003300020408040E1F700C0000085B1816085B9B0
:100340009FE32DE083E0915020408040E1F700C022
:10035000000085B18E7F85B99FE32DE083E0915049
:1003600020408040E1F700C000003FC1873D91057B
:1003700029F585B18E7F85B99FE32DE083E091500B
:1003800020408040E1F700C0000085B1816085B960
:100390009FE32DE083E0915020408040E1F700C0D2
:1003A000000085B18E7F85B99FE32DE083E09150F9
:1003B00020408040E1F700C0000017C18B3D91054F
:1003C00029F585B18E7F85B99FE32DE083E09150BB
:1003D00020408040E1F700C0000085B1816085B910
:1003E0009FE32DE083E0915020408040E1F700C082
:1003F000000085B18E7F85B99FE32DE083E09150A9
:1004000020408040E1F700C00000EFC08D3D910525
:1004100029F585B18E7F85B99FE32DE083E091506A
:1004200020408040E1F700C0000085B1816085B9BF
:100430009FE32DE083E0915020408040E1F700C031
:10044000000085B18E7F85B99FE32DE083E0915058
:1004500020408040E1F700C00000C7C08E3D9105FC
:1004600029F585B18E7F85B99FE32DE083E091501A
:1004700020408040E1F700C0000085B1816085B96F
:100480009FE32DE083E0915020408040E1F700C0E1
:10049000000085B18E7F85B99FE32DE083E0915008
:1004A00020408040E1F700C000009FC0873E9105DA
:1004B00029F585B18E7F85B99FE32DE083E09150CA
:1004C00020408040E1F700C0000085B1816085B91F
:1004D0009FE32DE083E0915020408040E1F700C091
:1004E000000085B18E7F85B99FE32DE083E09150B8
:1004F00020408040E1F700C0000077C08B3E9105AE
:1005000029F585B18E7F85B99FE32DE083E0915079
:1005100020408040E1F700C0000085B1816085B9CE
:100520009FE32DE083E0915020408040E1F700C040
:10053000000085B18E7F85B99FE32DE083E0915067
:1005400020408040E1F700C000004FC08D3E910583
:1005500029F585B18E7F85B99FE32DE083E0915029
:1005600020408040E1F700C0000085B1816085B97E
:100570009FE32DE083E0915020408040E1F700C0F0
:10058000000085B18E7F85B99FE32DE083E0915017
:1005900020408040E1F700C0000027C08E3E91055A
:1005A00021F585B18E7F85B99FE32DE083E09150E1
:1005B00020408040E1F700C0000085B1816085B92E
:1005C0009FE32DE083E0915020408040E1F700C0A0
:1005D000000085B18E7F85B99FE32DE083E09150C7
:1005E00020408040E1F700C000008AB180958AB9C0
:1005F00089EF90E00197F1F700C000008BB1809582
:100600008BB983EC99E00197F1F700C000004FCD62
:04061000F894FFCF8C
:00000001FF
