S01200004B6579706164546573742E7372656314
S11300000C9434000C9451000C9451000C94510045
S11300100C9451000C9451000C9451000C94510018
S11300200C9451000C9451000C9451000C94510008
S11300300C9451000C9451000C9451000C945100F8
S11300400C9451000C9451000C9451000C945100E8
S11300500C9451000C9451000C9451000C945100D8
S11300600C9451000C94510011241FBECFEFD8E022
S1130070DEBFCDBF11E0A0E0B1E0ECE2FAE002C0E7
S113008005900D92A032B107D9F721E0A0E2B1E0CA
S113009001C01D92A632B207E1F70E945A000C94E7
S11300A014050C9400000E942102009711F081E0D5
S11300B090E00895CF93DF93CDB7DEB7EA970FB6FC
S11300C0F894DEBF0FBECDBF8EE09E012F5F3F4F81
S11300D07901F901282F11922A95E9F792E09C837E
S11300E023E132E03A8729878E01015F1F4FF8012F
S11300F011928A95E9F781E08A8B8AE192E09A8FDE
S1130100898F87E690E00E940802E0E2F1E0F38242
S1130110E282118300838AB18F738AB984B18C7FA0
S113012084B984B18C6384B98FE99FE00197F1F7B6
S113013000C000008BB1806C8BB985B1836085B938
S1130140EFE9FFE03197F1F700C0000000E010E0B4
S113015089B1282F229526952695237093B1892F4E
S113016090E0880F991F880F991F822B8F708F3012
S113017079F39AB1906C9AB993E094B9EFE9FFE0FE
S11301803197F1F700C000009CE395B99BB19F73D0
S11301909BB9EFE9FFE03197F1F700C0000099B196
S11301A023B130E0220F331F220F331F207F822B15
S11301B0873769F481E390E00E944502EDE1F0E0C5
S11301C0EC0FFD1FE00FF11F81E38083F7C08B3735
S11301D069F482E390E00E944502EDE1F0E0EC0F67
S11301E0FD1FE00FF11F82E38083E8C08D3769F4BF
S11301F083E390E00E944502EDE1F0E0EC0FFD1F87
S1130200E00FF11F83E38083D9C08E3769F481E462
S113021090E00E944502EDE1F0E0EC0FFD1FE00FDD
S1130220F11F81E48083CAC0873B69F484E390E0D2
S11302300E944502EDE1F0E0EC0FFD1FE00FF11F1D
S113024084E38083BBC08B3B69F485E390E00E9428
S11302504502EDE1F0E0EC0FFD1FE00FF11F85E337
S11302608083ACC08D3B69F486E390E00E94450234
S1130270EDE1F0E0EC0FFD1FE00FF11F86E380835A
S11302809DC08E3B69F482E490E00E944502EDE15A
S1130290F0E0EC0FFD1FE00FF11F82E480838EC0BD
S11302A0873D69F487E390E00E944502EDE1F0E0C8
S11302B0EC0FFD1FE00FF11F87E380837FC08B3DB0
S11302C069F488E390E00E944502EDE1F0E0EC0F70
S11302D0FD1FE00FF11F88E3808370C08D3D69F43A
S11302E089E390E00E944502EDE1F0E0EC0FFD1F90
S11302F0E00FF11F89E3808361C08E3D69F483E4DC
S113030090E00E944502EDE1F0E0EC0FFD1FE00FEC
S1130310F11F83E4808352C0873EC1F4F801319712
S1130320CE014D96E80FF91F2EE131E020830250F3
S113033011099F938F9380E091E09F938F930E9484
S11303402F020F900F900F900F9038C08B3E69F4DE
S113035080E390E00E944502EDE1F0E0EC0FFD1F28
S1130360E00FF11F80E3808329C08D3EC9F483E24E
S113037090E00E944502A801BE01635E7F4F87E0C2
S113038091E00E9453009F938F938CE091E09F93A0
S11303908F930E942F020F900F900F900F900EC01A
S11303A08E3E61F484E490E00E944502EDE1F0E0C9
S11303B0EC0FFD1FE00FF11F84E480838AB18F737B
S11303C08AB984B18C7F84B984B18C6384B98FE990
S11303D09FE00197F1F700C000008BB1806C8BB9EE
S11303E085B1836085B985B1837C85B9EFE9FFE088
S11303F03197F1F700C000000F5F1F4FFFEF29E6B0
S113040038E1F15020403040E1F700C00000A0CEB8
S11304109093C5008093C40088E18093C1008EE06E
S11304208093C20008959091C00095FFFCCF809303
S1130430C60008958091C0008823E4F78091C60027
S11304400895FB01DC014150504030F08D91019042
S1130450801919F40020B9F7881B990B0895A0E0BE
S1130460B0E0E5E3F2E00C94ED04AE014B5F5F4FC6
S1130470FA0161917191AF01809122019091230160
S11304800E944C02E2E00C940905609122017091F3
S113049023010E9443040895ABE0B0E0E2E5F2E0FA
S11304A00C94DD046C017B018A01FC011782168225
S11304B0838181FFCCC1CE0101963C01F601938179
S11304C0F70193FD859193FF81917F01882309F4BE
S11304D0BAC1853239F493FD859193FF81917F01EF
S11304E0853229F4B60190E00E944304E7CF912CB1
S11304F0212C312CFFE1F315D8F08B3279F038F44C
S1130500803279F08332A1F4232D20611DC08D3215
S113051061F0803369F4232D216016C0832D82603D
S1130520382EE32DE4603E2E2AC0F32DF8601DC062
S113053037FC2DC020ED280F2A3040F08E32B9F45C
S113054036FC81C1232D2064322E19C036FE06C02C
S11305508AE0989E200D1124922E11C0EAE02E9E6E
S1130560200D1124222EF32DF0623F2E08C08C366C
S113057021F4832D8068382E02C0883641F4F701B7
S113058093FD859193FF81917F018111B3CF982FC2
S11305909F7D9554933028F40C5F1F4F9FE39983FC
S11305A00DC0833631F0833771F0833509F059C0BB
S11305B021C0F801808189830E5F1F4F88248394B2
S11305C0912C530113C02801F2E04F0E511CF80185
S11305D0A080B18036FE03C0692D70E002C06FEFC9
S11305E07FEFC5010E9438044C018201F32DFF778F
S11305F03F2E16C0280122E0420E511CF801A080B3
S1130600B18036FE03C0692D70E002C06FEF7FEF4A
S1130610C5010E942D044C01F32DF0683F2E820188
S113062033FC1BC0822D90E088169906B0F4B60105
S113063080E290E00E9443042A94F4CFF50137FC51
S1130640859137FE81915F01B60190E00E944304D9
S113065021102A9421E0821A91088114910471F7DF
S1130660E8C0843611F0893641F5F80137FE07C039
S113067060817181828193810C5F1F4F08C060810A
S11306807181072E000C880B990B0E5F1F4FF32D01
S1130690FF763F2E97FF09C09095809570956195E0
S11306A07F4F8F4F9F4FF0683F2E2AE030E0A30129
S11306B00E947F04882E861845C0853731F4232D87
S11306C02F7EB22E2AE030E025C0932D997FB92EDB
S11306D08F36C1F018F4883579F0B5C0803719F039
S11306E0883721F0B0C0E92FE061BE2EB4FE0DC002
S11306F0FB2DF460BF2E09C034FE0AC0292F2660EA
S1130700B22E06C028E030E005C020E130E002C08F
S113071020E132E0F801B7FE07C060817181828177
S113072093810C5F1F4F06C06081718180E090E06F
S11307300E5F1F4FA3010E947F04882E8618FB2D95
S1130740FF773F2E36FE0DC0232D2E7FA22E891457
S113075058F434FE0BC032FC09C0832D8E7EA82EC3
S113076005C0B82CA32C03C0B82C01C0B92CA4FE1E
S11307700FC0FE01E80DF11D8081803321F49A2D14
S1130780997EA92E09C0A2FE06C0B394B39404C0F6
S11307908A2D867809F0B394A3FC11C0A0FE06C08C
S11307A0B21488F4280C922C9B180EC0B21460F476
S11307B0B60180E290E00E944304B394F7CFB214F0
S11307C018F42B1802C0982C212CA4FE10C0B601DA
S11307D080E390E00E944304A2FE17C0A1FC03C082
S11307E088E790E002C088E590E0B6010CC08A2D4D
S11307F0867859F0A1FE02C08BE201C080E2A7FC1A
S11308008DE2B60190E00E944304891438F4B601E5
S113081080E390E00E9443049A94F7CF8A94F30112
S1130820E80DF11D8081B60190E00E94430481101F
S1130830F5CF222009F442CEB60180E290E00E9476
S113084043042A94F6CFF6018681978102C08FEF84
S11308509FEF2B96E2E10C94F904FC0105906150A2
S113086070400110D8F7809590958E0F9F1F0895C2
S1130870FC016150704001900110D8F7809590956B
S11308808E0F9F1F08950F931F93CF93DF93FB0148
S1130890238121FD03C08FEF9FEF2CC022FF16C0E0
S11308A046815781248135814217530744F4A0813E
S11308B0B1819D012F5F3F4F318320838C9326812B
S11308C037812F5F3F4F3783268314C08B01EC01A0
S11308D0FB010084F185E02D0995892BE1F6D8010F
S11308E016968D919C911797019617969C938E93CB
S11308F01697CE01DF91CF911F910F910895FA01C0
S1130900AA27283051F1203181F1E8946F936E7F4A
S11309106E5F7F4F8F4F9F4FAF4FB1E03ED0B4E03B
S11309203CD0670F781F891F9A1FA11D680F791F7C
S11309308A1F911DA11D6A0F711D811D911DA11D8D
S113094020D009F468943F912AE0269F112430199D
S1130950305D3193DEF6CF010895462F4770405D38
S11309604193B3E00FD0C9F7F6CF462F4F70405DE7
S11309704A3318F0495D31FD4052419302D0A9F742
S1130980EACFB4E0A6959795879577956795BA953C
S1130990C9F700976105710508959B01AC010A2E02
S11309A006945795479537952795BA95C9F7620FD9
S11309B0731F841F951FA01D08952F923F924F927D
S11309C05F926F927F928F929F92AF92BF92CF92DB
S11309D0DF92EF92FF920F931F93CF93DF93CDB7E4
S11309E0DEB7CA1BDB0B0FB6F894DEBF0FBECDBF5C
S11309F009942A88398848885F846E847D848C842D
S1130A009B84AA84B984C884DF80EE80FD800C8135
S1130A101B81AA81B981CE0FD11D0FB6F894DEBF18
S10F0A200FBECDBFED010895F894FFCF88
S1130A2C0A0D25730A0D0030313233000A0D70772C
S1130A3C5F76616C69646974792025640A0D000021
S9030000FC
