S00E000065785F365F312E7372656314
S113000071C0000086C0000084C0000082C00000EF
S113001080C000007EC000007CC000007AC00000E8
S113002078C0000076C0000074C0000072C00000F8
S113003070C000006EC000006CC000006AC0000008
S113004068C0000066C0000064C0000062C0000018
S113005060C000005EC000005CC000005AC0000028
S113006058C0000056C0000054C0000052C0000038
S113007050C000004EC000004CC000004AC0000048
S113008048C0000046C0000044C0000042C0000058
S113009040C000003EC000003CC000003AC0000068
S11300A038C0000036C0000034C0000032C0000078
S11300B030C000002EC000002CC000002AC0000088
S11300C028C0000026C0000024C0000022C0000098
S11300D020C000001EC000001CC000001AC00000A8
S11300E018C0000011241FBECFEFD1E2DEBFCDBF88
S11300F000E00CBF12E0A0E0B2E0ECE8F4E000E0C5
S11301000BBF02C007900D92AE30B107D9F760D192
S1130110BBC176CF85B1806885B9000085B18F7782
S113012085B90895CF93C82F662321F085B18062E5
S113013085B903C085B18F7D85B985B18F7B85B9BC
S1130140E1E0F1E080818860808380818061808348
S1130150808180628083808180648083E2E0F1E03A
S113016080818F7B808380818F7D808380818F7E5F
S113017080838081877F8083CC231CF4808180648A
S11301808083C6FF05C0E2E0F1E080818062808365
S1130190C5FF05C0E2E0F1E0808180618083C4FF97
S11301A005C0E2E0F1E0808188608083B3DFE2E0B3
S11301B0F1E080818F7B808380818F7D808380814B
S11301C08F7E80838081877F8083C3FF03C080818B
S11301D080648083C2FF05C0E2E0F1E08081806238
S11301E08083C1FF05C0E2E0F1E08081806180830B
S11301F0C0FF05C0E2E0F1E08081886080838ADF8F
S1130200E2E0F1E080818860808380818061808386
S1130210808180628083808180648083CF9108950F
S1130220882321F085B1806285B903C085B18F7DB3
S113023085B985B1806485B9E1E0F1E08081877F8B
S1130240808380818F7E808380818F7D8083808185
S11302508F7B808385B1806885B90000809100011F
S113026083FD02C080E001C080E19091000194FD13
S113027080629091000195FD80649091000196FD4B
S1130280806895B19F7795B9000095B1906895B94C
S113029000009091000193FD81609091000194FD14
S11302A082609091000195FD84609091000196FD1B
S11302B0886095B19F7795B9089580E0B1DF882370
S11302C0E4F300C000C080E0ABCF0895CF93C82F03
S11302D0F4DF60E08C2F26DFCF910895611103C015
S11302E08058F4CF08958054F1CF089581E0EECF83
S11302F00895CF93C82FE1DFCA3041F4803410F45D
S113030080E401C080E08058E1DF03C061E08C2F0D
S113031009DFCF910895CF93DF93FC0102C0E9DF99
S1130320FE01EF01219680818111F9CFDF91CF91F8
S113033008951F93CF93DF93182F84B1806284B9FB
S113034084B1806484B984B1806884B9E1E0F1E067
S113035080818860808380818061808380818062E5
S113036080838081806480838FE99FE00197F1F727
S113037000C00000C2E0D1E0888180618883888168
S113038088608883C7DE81EE94E00197F1F700C0AE
S11303900000C0DE95E19A95F1F70000BBDE85E12F
S11303A08A95F1F700008881877F8883B3DE95E121
S11303B09A95F1F7000088E289DF88E087DF96DF0D
S11303C086E084DF812F82DFDF91CF911F91089532
S11303D0CF93DF93CDB7DEB760970FB6F894DEBF47
S11303E00FBECDBF8CE0A5DF4AE050E0BE016F5FD9
S11303F07F4F83E897E00BD079DF80E092E08BDFDA
S113040061E080E06BDFCE01019685DFFFCF4532EE
S1130410510518F4423008F004C0FB011082CB01EE
S11304200895BB274A3031F4992322F4BDE2909514
S113043081959F4F01C0BB27FB015527AA27880F31
S1130440991FAA1FA41710F0A41B83955051B9F744
S1130450A05DAA3308F0A95DA193009779F7B111C3
S1130460B1931192CB0100C0DC01FC01672F7191A3
S11304707723E1F7329704C07C916D937083629186
S10F0480AE17BF07C8F30895F894FFCF2F
S111048C48656C6C6F20576F726C6421000021
S9030000FC
