S01700004D6F74696F6E53656E736F72556E6F2E73726563EB
S11300000C9434000C943E000C943E000C943E007E
S11300100C943E000C943E000C943E000C943E0064
S11300200C943E000C943E000C943E000C943E0054
S11300300C943E000C943E000C943E000C943E0044
S11300400C943E000C943E000C943E000C943E0034
S11300500C943E000C943E000C943E000C943E0024
S11300600C943E000C943E0011241FBECFEFD8E048
S1130070DEBFCDBF0E944F000C9466000C940000BC
S113008084B1806184B98AB1877F8AB908954B9B12
S113009003C081E090E0089580E090E008950E941C
S11300A040000E944700892B69F085B1806185B9C1
S11300B02FEF89E698E1215080409040E1F700C09D
S11300C00000EFCF85B18F7E85B9EBCFF894FFCFD9
S9030000FC
